{
  "_format": "hh-sol-artifact-1",
  "contractName": "NFTTicket",
  "sourceName": "contracts/NFTTicket.sol",
  "abi": [
    {
      "inputs": [
        {
          "internalType": "address",
          "name": "marketplaceAddress",
          "type": "address"
        }
      ],
      "stateMutability": "nonpayable",
      "type": "constructor"
    },
    {
      "anonymous": false,
      "inputs": [
        {
          "indexed": true,
          "internalType": "address",
          "name": "account",
          "type": "address"
        },
        {
          "indexed": true,
          "internalType": "address",
          "name": "operator",
          "type": "address"
        },
        {
          "indexed": false,
          "internalType": "bool",
          "name": "approved",
          "type": "bool"
        }
      ],
      "name": "ApprovalForAll",
      "type": "event"
    },
    {
      "anonymous": false,
      "inputs": [
        {
          "indexed": true,
          "internalType": "uint256",
          "name": "tokenId",
          "type": "uint256"
        }
      ],
      "name": "NFTTicketCreated",
      "type": "event"
    },
    {
      "anonymous": false,
      "inputs": [
        {
          "indexed": true,
          "internalType": "address",
          "name": "previousOwner",
          "type": "address"
        },
        {
          "indexed": true,
          "internalType": "address",
          "name": "newOwner",
          "type": "address"
        }
      ],
      "name": "OwnershipTransferred",
      "type": "event"
    },
    {
      "anonymous": false,
      "inputs": [
        {
          "indexed": false,
          "internalType": "address",
          "name": "account",
          "type": "address"
        }
      ],
      "name": "Paused",
      "type": "event"
    },
    {
      "anonymous": false,
      "inputs": [
        {
          "indexed": true,
          "internalType": "bytes32",
          "name": "role",
          "type": "bytes32"
        },
        {
          "indexed": true,
          "internalType": "bytes32",
          "name": "previousAdminRole",
          "type": "bytes32"
        },
        {
          "indexed": true,
          "internalType": "bytes32",
          "name": "newAdminRole",
          "type": "bytes32"
        }
      ],
      "name": "RoleAdminChanged",
      "type": "event"
    },
    {
      "anonymous": false,
      "inputs": [
        {
          "indexed": true,
          "internalType": "bytes32",
          "name": "role",
          "type": "bytes32"
        },
        {
          "indexed": true,
          "internalType": "address",
          "name": "account",
          "type": "address"
        },
        {
          "indexed": true,
          "internalType": "address",
          "name": "sender",
          "type": "address"
        }
      ],
      "name": "RoleGranted",
      "type": "event"
    },
    {
      "anonymous": false,
      "inputs": [
        {
          "indexed": true,
          "internalType": "bytes32",
          "name": "role",
          "type": "bytes32"
        },
        {
          "indexed": true,
          "internalType": "address",
          "name": "account",
          "type": "address"
        },
        {
          "indexed": true,
          "internalType": "address",
          "name": "sender",
          "type": "address"
        }
      ],
      "name": "RoleRevoked",
      "type": "event"
    },
    {
      "anonymous": false,
      "inputs": [
        {
          "indexed": true,
          "internalType": "address",
          "name": "operator",
          "type": "address"
        },
        {
          "indexed": true,
          "internalType": "address",
          "name": "from",
          "type": "address"
        },
        {
          "indexed": true,
          "internalType": "address",
          "name": "to",
          "type": "address"
        },
        {
          "indexed": false,
          "internalType": "uint256[]",
          "name": "ids",
          "type": "uint256[]"
        },
        {
          "indexed": false,
          "internalType": "uint256[]",
          "name": "values",
          "type": "uint256[]"
        }
      ],
      "name": "TransferBatch",
      "type": "event"
    },
    {
      "anonymous": false,
      "inputs": [
        {
          "indexed": true,
          "internalType": "address",
          "name": "operator",
          "type": "address"
        },
        {
          "indexed": true,
          "internalType": "address",
          "name": "from",
          "type": "address"
        },
        {
          "indexed": true,
          "internalType": "address",
          "name": "to",
          "type": "address"
        },
        {
          "indexed": false,
          "internalType": "uint256",
          "name": "id",
          "type": "uint256"
        },
        {
          "indexed": false,
          "internalType": "uint256",
          "name": "value",
          "type": "uint256"
        }
      ],
      "name": "TransferSingle",
      "type": "event"
    },
    {
      "anonymous": false,
      "inputs": [
        {
          "indexed": false,
          "internalType": "string",
          "name": "value",
          "type": "string"
        },
        {
          "indexed": true,
          "internalType": "uint256",
          "name": "id",
          "type": "uint256"
        }
      ],
      "name": "URI",
      "type": "event"
    },
    {
      "anonymous": false,
      "inputs": [
        {
          "indexed": false,
          "internalType": "address",
          "name": "account",
          "type": "address"
        }
      ],
      "name": "Unpaused",
      "type": "event"
    },
    {
      "inputs": [],
      "name": "DEFAULT_ADMIN_ROLE",
      "outputs": [
        {
          "internalType": "bytes32",
          "name": "",
          "type": "bytes32"
        }
      ],
      "stateMutability": "view",
      "type": "function"
    },
    {
      "inputs": [],
      "name": "MINTER_ROLE",
      "outputs": [
        {
          "internalType": "bytes32",
          "name": "",
          "type": "bytes32"
        }
      ],
      "stateMutability": "view",
      "type": "function"
    },
    {
      "inputs": [],
      "name": "PAUSER_ROLE",
      "outputs": [
        {
          "internalType": "bytes32",
          "name": "",
          "type": "bytes32"
        }
      ],
      "stateMutability": "view",
      "type": "function"
    },
    {
      "inputs": [
        {
          "internalType": "uint256",
          "name": "tokenId",
          "type": "uint256"
        },
        {
          "internalType": "uint64",
          "name": "amount",
          "type": "uint64"
        }
      ],
      "name": "addTokens",
      "outputs": [],
      "stateMutability": "nonpayable",
      "type": "function"
    },
    {
      "inputs": [
        {
          "internalType": "address",
          "name": "account",
          "type": "address"
        },
        {
          "internalType": "uint256",
          "name": "id",
          "type": "uint256"
        }
      ],
      "name": "balanceOf",
      "outputs": [
        {
          "internalType": "uint256",
          "name": "",
          "type": "uint256"
        }
      ],
      "stateMutability": "view",
      "type": "function"
    },
    {
      "inputs": [
        {
          "internalType": "address[]",
          "name": "accounts",
          "type": "address[]"
        },
        {
          "internalType": "uint256[]",
          "name": "ids",
          "type": "uint256[]"
        }
      ],
      "name": "balanceOfBatch",
      "outputs": [
        {
          "internalType": "uint256[]",
          "name": "",
          "type": "uint256[]"
        }
      ],
      "stateMutability": "view",
      "type": "function"
    },
    {
      "inputs": [
        {
          "internalType": "address",
          "name": "account",
          "type": "address"
        },
        {
          "internalType": "uint256",
          "name": "id",
          "type": "uint256"
        },
        {
          "internalType": "uint256",
          "name": "value",
          "type": "uint256"
        }
      ],
      "name": "burn",
      "outputs": [],
      "stateMutability": "nonpayable",
      "type": "function"
    },
    {
      "inputs": [
        {
          "internalType": "address",
          "name": "account",
          "type": "address"
        },
        {
          "internalType": "uint256[]",
          "name": "ids",
          "type": "uint256[]"
        },
        {
          "internalType": "uint256[]",
          "name": "values",
          "type": "uint256[]"
        }
      ],
      "name": "burnBatch",
      "outputs": [],
      "stateMutability": "nonpayable",
      "type": "function"
    },
    {
      "inputs": [
        {
          "internalType": "string",
          "name": "newUri",
          "type": "string"
        },
        {
          "internalType": "uint64",
          "name": "amount",
          "type": "uint64"
        }
      ],
      "name": "createToken",
      "outputs": [
        {
          "internalType": "uint256",
          "name": "",
          "type": "uint256"
        }
      ],
      "stateMutability": "nonpayable",
      "type": "function"
    },
    {
      "inputs": [
        {
          "internalType": "bytes32",
          "name": "role",
          "type": "bytes32"
        }
      ],
      "name": "getRoleAdmin",
      "outputs": [
        {
          "internalType": "bytes32",
          "name": "",
          "type": "bytes32"
        }
      ],
      "stateMutability": "view",
      "type": "function"
    },
    {
      "inputs": [
        {
          "internalType": "bytes32",
          "name": "role",
          "type": "bytes32"
        },
        {
          "internalType": "uint256",
          "name": "index",
          "type": "uint256"
        }
      ],
      "name": "getRoleMember",
      "outputs": [
        {
          "internalType": "address",
          "name": "",
          "type": "address"
        }
      ],
      "stateMutability": "view",
      "type": "function"
    },
    {
      "inputs": [
        {
          "internalType": "bytes32",
          "name": "role",
          "type": "bytes32"
        }
      ],
      "name": "getRoleMemberCount",
      "outputs": [
        {
          "internalType": "uint256",
          "name": "",
          "type": "uint256"
        }
      ],
      "stateMutability": "view",
      "type": "function"
    },
    {
      "inputs": [
        {
          "internalType": "uint256",
          "name": "tokenId",
          "type": "uint256"
        }
      ],
      "name": "giveResaleApproval",
      "outputs": [],
      "stateMutability": "nonpayable",
      "type": "function"
    },
    {
      "inputs": [
        {
          "internalType": "bytes32",
          "name": "role",
          "type": "bytes32"
        },
        {
          "internalType": "address",
          "name": "account",
          "type": "address"
        }
      ],
      "name": "grantRole",
      "outputs": [],
      "stateMutability": "nonpayable",
      "type": "function"
    },
    {
      "inputs": [
        {
          "internalType": "bytes32",
          "name": "role",
          "type": "bytes32"
        },
        {
          "internalType": "address",
          "name": "account",
          "type": "address"
        }
      ],
      "name": "hasRole",
      "outputs": [
        {
          "internalType": "bool",
          "name": "",
          "type": "bool"
        }
      ],
      "stateMutability": "view",
      "type": "function"
    },
    {
      "inputs": [
        {
          "internalType": "address",
          "name": "account",
          "type": "address"
        },
        {
          "internalType": "address",
          "name": "operator",
          "type": "address"
        }
      ],
      "name": "isApprovedForAll",
      "outputs": [
        {
          "internalType": "bool",
          "name": "",
          "type": "bool"
        }
      ],
      "stateMutability": "view",
      "type": "function"
    },
    {
      "inputs": [
        {
          "internalType": "address",
          "name": "to",
          "type": "address"
        },
        {
          "internalType": "uint256",
          "name": "id",
          "type": "uint256"
        },
        {
          "internalType": "uint256",
          "name": "amount",
          "type": "uint256"
        },
        {
          "internalType": "bytes",
          "name": "data",
          "type": "bytes"
        }
      ],
      "name": "mint",
      "outputs": [],
      "stateMutability": "nonpayable",
      "type": "function"
    },
    {
      "inputs": [
        {
          "internalType": "address",
          "name": "to",
          "type": "address"
        },
        {
          "internalType": "uint256[]",
          "name": "ids",
          "type": "uint256[]"
        },
        {
          "internalType": "uint256[]",
          "name": "amounts",
          "type": "uint256[]"
        },
        {
          "internalType": "bytes",
          "name": "data",
          "type": "bytes"
        }
      ],
      "name": "mintBatch",
      "outputs": [],
      "stateMutability": "nonpayable",
      "type": "function"
    },
    {
      "inputs": [],
      "name": "owner",
      "outputs": [
        {
          "internalType": "address",
          "name": "",
          "type": "address"
        }
      ],
      "stateMutability": "view",
      "type": "function"
    },
    {
      "inputs": [],
      "name": "pause",
      "outputs": [],
      "stateMutability": "nonpayable",
      "type": "function"
    },
    {
      "inputs": [],
      "name": "paused",
      "outputs": [
        {
          "internalType": "bool",
          "name": "",
          "type": "bool"
        }
      ],
      "stateMutability": "view",
      "type": "function"
    },
    {
      "inputs": [],
      "name": "renounceOwnership",
      "outputs": [],
      "stateMutability": "nonpayable",
      "type": "function"
    },
    {
      "inputs": [
        {
          "internalType": "bytes32",
          "name": "role",
          "type": "bytes32"
        },
        {
          "internalType": "address",
          "name": "account",
          "type": "address"
        }
      ],
      "name": "renounceRole",
      "outputs": [],
      "stateMutability": "nonpayable",
      "type": "function"
    },
    {
      "inputs": [
        {
          "internalType": "bytes32",
          "name": "role",
          "type": "bytes32"
        },
        {
          "internalType": "address",
          "name": "account",
          "type": "address"
        }
      ],
      "name": "revokeRole",
      "outputs": [],
      "stateMutability": "nonpayable",
      "type": "function"
    },
    {
      "inputs": [
        {
          "internalType": "address",
          "name": "from",
          "type": "address"
        },
        {
          "internalType": "address",
          "name": "to",
          "type": "address"
        },
        {
          "internalType": "uint256[]",
          "name": "ids",
          "type": "uint256[]"
        },
        {
          "internalType": "uint256[]",
          "name": "amounts",
          "type": "uint256[]"
        },
        {
          "internalType": "bytes",
          "name": "data",
          "type": "bytes"
        }
      ],
      "name": "safeBatchTransferFrom",
      "outputs": [],
      "stateMutability": "nonpayable",
      "type": "function"
    },
    {
      "inputs": [
        {
          "internalType": "address",
          "name": "from",
          "type": "address"
        },
        {
          "internalType": "address",
          "name": "to",
          "type": "address"
        },
        {
          "internalType": "uint256",
          "name": "id",
          "type": "uint256"
        },
        {
          "internalType": "uint256",
          "name": "amount",
          "type": "uint256"
        },
        {
          "internalType": "bytes",
          "name": "data",
          "type": "bytes"
        }
      ],
      "name": "safeTransferFrom",
      "outputs": [],
      "stateMutability": "nonpayable",
      "type": "function"
    },
    {
      "inputs": [
        {
          "internalType": "address",
          "name": "operator",
          "type": "address"
        },
        {
          "internalType": "bool",
          "name": "approved",
          "type": "bool"
        }
      ],
      "name": "setApprovalForAll",
      "outputs": [],
      "stateMutability": "nonpayable",
      "type": "function"
    },
    {
      "inputs": [
        {
          "internalType": "bytes4",
          "name": "interfaceId",
          "type": "bytes4"
        }
      ],
      "name": "supportsInterface",
      "outputs": [
        {
          "internalType": "bool",
          "name": "",
          "type": "bool"
        }
      ],
      "stateMutability": "view",
      "type": "function"
    },
    {
      "inputs": [
        {
          "internalType": "address",
          "name": "newOwner",
          "type": "address"
        }
      ],
      "name": "transferOwnership",
      "outputs": [],
      "stateMutability": "nonpayable",
      "type": "function"
    },
    {
      "inputs": [],
      "name": "unpause",
      "outputs": [],
      "stateMutability": "nonpayable",
      "type": "function"
    },
    {
      "inputs": [
        {
          "internalType": "uint256",
          "name": "tokenId",
          "type": "uint256"
        }
      ],
      "name": "uri",
      "outputs": [
        {
          "internalType": "string",
          "name": "",
          "type": "string"
        }
      ],
      "stateMutability": "view",
      "type": "function"
    }
  ],
  "bytecode": "0x60806040523480156200001157600080fd5b50604051620034723803806200347283398101604081905262000034916200036b565b604080516020810190915260008152806200004f81620000f1565b506005805460ff19169055620000676000336200010a565b620000937f9f2df0fed2c77648de5860a4cc508cd0818c85b8b8a1ab4ceeef8d981c8956a6336200010a565b620000bf7f65d7a28e3265b37a6474929f336521b332c1681b933f6cb9f3376673440d862a336200010a565b50620000cb3362000116565b600780546001600160a01b0319166001600160a01b0392909216919091179055620003d8565b805162000106906004906020840190620002c5565b5050565b62000106828262000170565b600580546001600160a01b03838116610100818102610100600160a81b031985161790945560405193909204169182907f8be0079c531659141344cd1fd0a4f28419497f9722a3daafe3b4186f6b6457e090600090a35050565b620001878282620001b360201b62000f891760201c565b6000828152600160209081526040909120620001ae9183906200100d62000253821b17901c565b505050565b6000828152602081815260408083206001600160a01b038516845290915290205460ff1662000106576000828152602081815260408083206001600160a01b03851684529091529020805460ff191660011790556200020f3390565b6001600160a01b0316816001600160a01b0316837f2f8788117e7eff1d82e926ec794901d17c78024a50270940304540a733656f0d60405160405180910390a45050565b60006200026a836001600160a01b03841662000273565b90505b92915050565b6000818152600183016020526040812054620002bc575081546001818101845560008481526020808220909301849055845484825282860190935260409020919091556200026d565b5060006200026d565b828054620002d3906200039b565b90600052602060002090601f016020900481019282620002f7576000855562000342565b82601f106200031257805160ff191683800117855562000342565b8280016001018555821562000342579182015b828111156200034257825182559160200191906001019062000325565b506200035092915062000354565b5090565b5b8082111562000350576000815560010162000355565b6000602082840312156200037d578081fd5b81516001600160a01b038116811462000394578182fd5b9392505050565b600181811c90821680620003b057607f821691505b60208210811415620003d257634e487b7160e01b600052602260045260246000fd5b50919050565b61308a80620003e86000396000f3fe608060405234801561001057600080fd5b50600436106101e45760003560e01c80637e78146c1161010f578063d5391393116100a2578063e985e9c511610071578063e985e9c514610444578063f242432a14610480578063f2fde38b14610493578063f5298aca146104a657600080fd5b8063d5391393146103d0578063d547741f146103f7578063d83a04b31461040a578063e63ab1e91461041d57600080fd5b806391d14854116100de57806391d148541461038f578063a217fddf146103a2578063a22cb465146103aa578063ca15c873146103bd57600080fd5b80637e78146c146103375780638456cb591461034a5780638da5cb5b146103525780639010d07c1461037c57600080fd5b80632f2ff15d116101875780635c975abb116101565780635c975abb146102fe5780636b20c45414610309578063715018a61461031c578063731133e91461032457600080fd5b80632f2ff15d146102b057806336568abe146102c35780633f4ba83a146102d65780634e1273f4146102de57600080fd5b80631f7fdffa116101c35780631f7fdffa1461025257806322078a6e14610267578063248a9ca31461027a5780632eb2c2d61461029d57600080fd5b8062fdd58e146101e957806301ffc9a71461020f5780630e89341c14610232575b600080fd5b6101fc6101f736600461275b565b6104b9565b6040519081526020015b60405180910390f35b61022261021d36600461292d565b610555565b6040519015158152602001610206565b6102456102403660046128d2565b610560565b6040516102069190612b9b565b61026561026036600461268d565b61066b565b005b6102656102753660046129ba565b6106c3565b6101fc6102883660046128d2565b60009081526020819052604090206001015490565b6102656102ab366004612516565b61077a565b6102656102be3660046128ea565b610811565b6102656102d13660046128ea565b61083b565b6102656108b5565b6102f16102ec366004612808565b61095b565b6040516102069190612b5a565b60055460ff16610222565b61026561031736600461261d565b610abc565b610265610aff565b6102656103323660046127b6565b610b69565b6102656103453660046128d2565b610bbb565b610265610c42565b60055461010090046001600160a01b03165b6040516001600160a01b039091168152602001610206565b61036461038a36600461290c565b610ce6565b61022261039d3660046128ea565b610d05565b6101fc600081565b6102656103b8366004612721565b610d2e565b6101fc6103cb3660046128d2565b610d39565b6101fc7f9f2df0fed2c77648de5860a4cc508cd0818c85b8b8a1ab4ceeef8d981c8956a681565b6102656104053660046128ea565b610d50565b6101fc610418366004612965565b610d75565b6101fc7f65d7a28e3265b37a6474929f336521b332c1681b933f6cb9f3376673440d862a81565b6102226104523660046124e4565b6001600160a01b03918216600090815260036020908152604080832093909416825291909152205460ff1690565b61026561048e3660046125bb565b610e33565b6102656104a13660046124ca565b610e78565b6102656104b4366004612784565b610f46565b60006001600160a01b03831661052a5760405162461bcd60e51b815260206004820152602b60248201527f455243313135353a2062616c616e636520717565727920666f7220746865207a60448201526a65726f206164647265737360a81b60648201526084015b60405180910390fd5b5060008181526002602090815260408083206001600160a01b03861684529091529020545b92915050565b600061054f82611022565b600081815260086020526040902080546060919061057d90612eef565b151590506105cd5760405162461bcd60e51b815260206004820152601b60248201527f4e6f207572692065786973747320666f722074686520746f6b656e00000000006044820152606401610521565b600082815260086020526040902080546105e690612eef565b80601f016020809104026020016040519081016040528092919081815260200182805461061290612eef565b801561065f5780601f106106345761010080835404028352916020019161065f565b820191906000526020600020905b81548152906001019060200180831161064257829003601f168201915b50505050509050919050565b6106957f9f2df0fed2c77648de5860a4cc508cd0818c85b8b8a1ab4ceeef8d981c8956a633610d05565b6106b15760405162461bcd60e51b815260040161052190612d0b565b6106bd84848484611062565b50505050565b6000828152600860205260409020600101546001600160a01b0316331461073b5760405162461bcd60e51b815260206004820152602660248201527f4f6e6c7920746f6b656e206f776e65722063616e206d696e7420657874726120604482015265746f6b656e7360d01b6064820152608401610521565b61075f3383836001600160401b0316604051806020016040528060008152506111d9565b600754610776906001600160a01b03166001610d2e565b5050565b6001600160a01b03851633148061079657506107968533610452565b6107fd5760405162461bcd60e51b815260206004820152603260248201527f455243313135353a207472616e736665722063616c6c6572206973206e6f74206044820152711bdddb995c881b9bdc88185c1c1c9bdd995960721b6064820152608401610521565b61080a85858585856112c4565b5050505050565b60008281526020819052604090206001015461082c8161148d565b6108368383611497565b505050565b6001600160a01b03811633146108ab5760405162461bcd60e51b815260206004820152602f60248201527f416363657373436f6e74726f6c3a2063616e206f6e6c792072656e6f756e636560448201526e103937b632b9903337b91039b2b63360891b6064820152608401610521565b61077682826114b9565b6108df7f65d7a28e3265b37a6474929f336521b332c1681b933f6cb9f3376673440d862a33610d05565b6109515760405162461bcd60e51b815260206004820152603b60248201527f455243313135355072657365744d696e7465725061757365723a206d7573742060448201527f686176652070617573657220726f6c6520746f20756e706175736500000000006064820152608401610521565b6109596114db565b565b606081518351146109c05760405162461bcd60e51b815260206004820152602960248201527f455243313135353a206163636f756e747320616e6420696473206c656e677468604482015268040dad2e6dac2e8c6d60bb1b6064820152608401610521565b600083516001600160401b038111156109e957634e487b7160e01b600052604160045260246000fd5b604051908082528060200260200182016040528015610a12578160200160208202803683370190505b50905060005b8451811015610ab457610a79858281518110610a4457634e487b7160e01b600052603260045260246000fd5b6020026020010151858381518110610a6c57634e487b7160e01b600052603260045260246000fd5b60200260200101516104b9565b828281518110610a9957634e487b7160e01b600052603260045260246000fd5b6020908102919091010152610aad81612f56565b9050610a18565b509392505050565b6001600160a01b038316331480610ad85750610ad88333610452565b610af45760405162461bcd60e51b815260040161052190612c3a565b61083683838361156e565b6005546001600160a01b03610100909104163314610b5f5760405162461bcd60e51b815260206004820181905260248201527f4f776e61626c653a2063616c6c6572206973206e6f7420746865206f776e65726044820152606401610521565b6109596000611729565b610b937f9f2df0fed2c77648de5860a4cc508cd0818c85b8b8a1ab4ceeef8d981c8956a633610d05565b610baf5760405162461bcd60e51b815260040161052190612d0b565b6106bd848484846111d9565b6000610bc733836104b9565b11610c285760405162461bcd60e51b815260206004820152602b60248201527f596f75206d757374206f776e2074686973204e465420696e206f72646572207460448201526a1bc81c995cd95b1b081a5d60aa1b6064820152608401610521565b600754610c3f906001600160a01b03166001610d2e565b50565b610c6c7f65d7a28e3265b37a6474929f336521b332c1681b933f6cb9f3376673440d862a33610d05565b610cde5760405162461bcd60e51b815260206004820152603960248201527f455243313135355072657365744d696e7465725061757365723a206d7573742060448201527f686176652070617573657220726f6c6520746f207061757365000000000000006064820152608401610521565b610959611783565b6000828152600160205260408120610cfe90836117fe565b9392505050565b6000918252602082815260408084206001600160a01b0393909316845291905290205460ff1690565b61077633838361180a565b600081815260016020526040812061054f906118eb565b600082815260208190526040902060010154610d6b8161148d565b61083683836114b9565b6000610d85600680546001019055565b6000610d9060065490565b9050610db63382856001600160401b0316604051806020016040528060008152506111d9565b600754610dcd906001600160a01b03166001610d2e565b60008181526008602090815260409091206001810180546001600160a01b031916331790558551610e009287019061230e565b5060405181907fb063e4b2120f98ebc6bca03d87cb731336ee09217a0c71ed0741571891591efc90600090a29392505050565b6001600160a01b038516331480610e4f5750610e4f8533610452565b610e6b5760405162461bcd60e51b815260040161052190612c3a565b61080a85858585856118f5565b6005546001600160a01b03610100909104163314610ed85760405162461bcd60e51b815260206004820181905260248201527f4f776e61626c653a2063616c6c6572206973206e6f7420746865206f776e65726044820152606401610521565b6001600160a01b038116610f3d5760405162461bcd60e51b815260206004820152602660248201527f4f776e61626c653a206e6577206f776e657220697320746865207a65726f206160448201526564647265737360d01b6064820152608401610521565b610c3f81611729565b6001600160a01b038316331480610f625750610f628333610452565b610f7e5760405162461bcd60e51b815260040161052190612c3a565b610836838383611a31565b610f938282610d05565b610776576000828152602081815260408083206001600160a01b03851684529091529020805460ff19166001179055610fc93390565b6001600160a01b0316816001600160a01b0316837f2f8788117e7eff1d82e926ec794901d17c78024a50270940304540a733656f0d60405160405180910390a45050565b6000610cfe836001600160a01b038416611b4d565b60006001600160e01b03198216636cdb3d1360e11b148061105357506001600160e01b031982166303a24d0760e21b145b8061054f575061054f82611b9c565b6001600160a01b0384166110885760405162461bcd60e51b815260040161052190612dfa565b81518351146110a95760405162461bcd60e51b815260040161052190612db2565b336110b981600087878787611bc1565b60005b8451811015611171578381815181106110e557634e487b7160e01b600052603260045260246000fd5b60200260200101516002600087848151811061111157634e487b7160e01b600052603260045260246000fd5b602002602001015181526020019081526020016000206000886001600160a01b03166001600160a01b0316815260200190815260200160002060008282546111599190612e5e565b9091555081905061116981612f56565b9150506110bc565b50846001600160a01b031660006001600160a01b0316826001600160a01b03167f4a39dc06d4c0dbc64b70af90fd698a233a518aa5d07e595d983b8c0526c8f7fb87876040516111c2929190612b6d565b60405180910390a461080a81600087878787611bcf565b6001600160a01b0384166111ff5760405162461bcd60e51b815260040161052190612dfa565b33600061120b85611d3a565b9050600061121885611d3a565b905061122983600089858589611bc1565b60008681526002602090815260408083206001600160a01b038b1684529091528120805487929061125b908490612e5e565b909155505060408051878152602081018790526001600160a01b03808a1692600092918716917fc3d58168c5ae7397731d063d5bbf3d657854427343f4c083240f7aacaa2d0f62910160405180910390a46112bb83600089898989611d93565b50505050505050565b81518351146112e55760405162461bcd60e51b815260040161052190612db2565b6001600160a01b03841661130b5760405162461bcd60e51b815260040161052190612c83565b3361131a818787878787611bc1565b60005b845181101561141f57600085828151811061134857634e487b7160e01b600052603260045260246000fd5b60200260200101519050600085838151811061137457634e487b7160e01b600052603260045260246000fd5b60209081029190910181015160008481526002835260408082206001600160a01b038e1683529093529190912054909150818110156113c55760405162461bcd60e51b815260040161052190612d68565b60008381526002602090815260408083206001600160a01b038e8116855292528083208585039055908b16825281208054849290611404908490612e5e565b925050819055505050508061141890612f56565b905061131d565b50846001600160a01b0316866001600160a01b0316826001600160a01b03167f4a39dc06d4c0dbc64b70af90fd698a233a518aa5d07e595d983b8c0526c8f7fb878760405161146f929190612b6d565b60405180910390a4611485818787878787611bcf565b505050505050565b610c3f8133611e5d565b6114a18282610f89565b6000828152600160205260409020610836908261100d565b6114c38282611ec1565b60008281526001602052604090206108369082611f26565b60055460ff166115245760405162461bcd60e51b815260206004820152601460248201527314185d5cd8589b194e881b9bdd081c185d5cd95960621b6044820152606401610521565b6005805460ff191690557f5db9ee0a495bf2e6ff9c91a7834c1ba4fdd244a5e8aa4e537bd38aeae4b073aa335b6040516001600160a01b03909116815260200160405180910390a1565b6001600160a01b0383166115945760405162461bcd60e51b815260040161052190612cc8565b80518251146115b55760405162461bcd60e51b815260040161052190612db2565b60003390506115d881856000868660405180602001604052806000815250611bc1565b60005b83518110156116bc57600084828151811061160657634e487b7160e01b600052603260045260246000fd5b60200260200101519050600084838151811061163257634e487b7160e01b600052603260045260246000fd5b60209081029190910181015160008481526002835260408082206001600160a01b038c1683529093529190912054909150818110156116835760405162461bcd60e51b815260040161052190612bf6565b60009283526002602090815260408085206001600160a01b038b16865290915290922091039055806116b481612f56565b9150506115db565b5060006001600160a01b0316846001600160a01b0316826001600160a01b03167f4a39dc06d4c0dbc64b70af90fd698a233a518aa5d07e595d983b8c0526c8f7fb868660405161170d929190612b6d565b60405180910390a46040805160208101909152600090526106bd565b600580546001600160a01b03838116610100818102610100600160a81b031985161790945560405193909204169182907f8be0079c531659141344cd1fd0a4f28419497f9722a3daafe3b4186f6b6457e090600090a35050565b60055460ff16156117c95760405162461bcd60e51b815260206004820152601060248201526f14185d5cd8589b194e881c185d5cd95960821b6044820152606401610521565b6005805460ff191660011790557f62e78cea01bee320cd4e420270b5ea74000d11b0c9f74754ebdbfc544b05a2586115513390565b6000610cfe8383611f3b565b816001600160a01b0316836001600160a01b0316141561187e5760405162461bcd60e51b815260206004820152602960248201527f455243313135353a2073657474696e6720617070726f76616c20737461747573604482015268103337b91039b2b63360b91b6064820152608401610521565b6001600160a01b03838116600081815260036020908152604080832094871680845294825291829020805460ff191686151590811790915591519182527f17307eab39ab6107e8899845ad3d59bd9653f200f220920489ca2b5937696c31910160405180910390a3505050565b600061054f825490565b6001600160a01b03841661191b5760405162461bcd60e51b815260040161052190612c83565b33600061192785611d3a565b9050600061193485611d3a565b9050611944838989858589611bc1565b60008681526002602090815260408083206001600160a01b038c168452909152902054858110156119875760405162461bcd60e51b815260040161052190612d68565b60008781526002602090815260408083206001600160a01b038d8116855292528083208985039055908a168252812080548892906119c6908490612e5e565b909155505060408051888152602081018890526001600160a01b03808b16928c821692918816917fc3d58168c5ae7397731d063d5bbf3d657854427343f4c083240f7aacaa2d0f62910160405180910390a4611a26848a8a8a8a8a611d93565b505050505050505050565b6001600160a01b038316611a575760405162461bcd60e51b815260040161052190612cc8565b336000611a6384611d3a565b90506000611a7084611d3a565b9050611a9083876000858560405180602001604052806000815250611bc1565b60008581526002602090815260408083206001600160a01b038a16845290915290205484811015611ad35760405162461bcd60e51b815260040161052190612bf6565b60008681526002602090815260408083206001600160a01b038b81168086529184528285208a8703905582518b81529384018a90529092908816917fc3d58168c5ae7397731d063d5bbf3d657854427343f4c083240f7aacaa2d0f62910160405180910390a46040805160208101909152600090526112bb565b6000818152600183016020526040812054611b945750815460018181018455600084815260208082209093018490558454848252828601909352604090209190915561054f565b50600061054f565b60006001600160e01b03198216635a05180f60e01b148061054f575061054f82611f73565b611485868686868686611fa8565b6001600160a01b0384163b156114855760405163bc197c8160e01b81526001600160a01b0385169063bc197c8190611c139089908990889088908890600401612ab7565b602060405180830381600087803b158015611c2d57600080fd5b505af1925050508015611c5d575060408051601f3d908101601f19168201909252611c5a91810190612949565b60015b611d0a57611c69612f9d565b806308c379a01415611ca35750611c7e612fb5565b80611c895750611ca5565b8060405162461bcd60e51b81526004016105219190612b9b565b505b60405162461bcd60e51b815260206004820152603460248201527f455243313135353a207472616e7366657220746f206e6f6e20455243313135356044820152732932b1b2b4bb32b91034b6b83632b6b2b73a32b960611b6064820152608401610521565b6001600160e01b0319811663bc197c8160e01b146112bb5760405162461bcd60e51b815260040161052190612bae565b60408051600180825281830190925260609160009190602080830190803683370190505090508281600081518110611d8257634e487b7160e01b600052603260045260246000fd5b602090810291909101015292915050565b6001600160a01b0384163b156114855760405163f23a6e6160e01b81526001600160a01b0385169063f23a6e6190611dd79089908990889088908890600401612b15565b602060405180830381600087803b158015611df157600080fd5b505af1925050508015611e21575060408051601f3d908101601f19168201909252611e1e91810190612949565b60015b611e2d57611c69612f9d565b6001600160e01b0319811663f23a6e6160e01b146112bb5760405162461bcd60e51b815260040161052190612bae565b611e678282610d05565b61077657611e7f816001600160a01b03166014612010565b611e8a836020612010565b604051602001611e9b929190612a42565b60408051601f198184030181529082905262461bcd60e51b825261052191600401612b9b565b611ecb8282610d05565b15610776576000828152602081815260408083206001600160a01b0385168085529252808320805460ff1916905551339285917ff6391f5c32d9c69d2a47ea670b442974b53935d1edc7fd64eb21e047a839171b9190a45050565b6000610cfe836001600160a01b0384166121f1565b6000826000018281548110611f6057634e487b7160e01b600052603260045260246000fd5b9060005260206000200154905092915050565b60006001600160e01b03198216637965db0b60e01b148061054f57506301ffc9a760e01b6001600160e01b031983161461054f565b60055460ff16156114855760405162461bcd60e51b815260206004820152602c60248201527f455243313135355061757361626c653a20746f6b656e207472616e736665722060448201526b1dda1a5b19481c185d5cd95960a21b6064820152608401610521565b6060600061201f836002612e76565b61202a906002612e5e565b6001600160401b0381111561204f57634e487b7160e01b600052604160045260246000fd5b6040519080825280601f01601f191660200182016040528015612079576020820181803683370190505b509050600360fc1b816000815181106120a257634e487b7160e01b600052603260045260246000fd5b60200101906001600160f81b031916908160001a905350600f60fb1b816001815181106120df57634e487b7160e01b600052603260045260246000fd5b60200101906001600160f81b031916908160001a9053506000612103846002612e76565b61210e906001612e5e565b90505b60018111156121a2576f181899199a1a9b1b9c1cb0b131b232b360811b85600f166010811061215057634e487b7160e01b600052603260045260246000fd5b1a60f81b82828151811061217457634e487b7160e01b600052603260045260246000fd5b60200101906001600160f81b031916908160001a90535060049490941c9361219b81612ed8565b9050612111565b508315610cfe5760405162461bcd60e51b815260206004820181905260248201527f537472696e67733a20686578206c656e67746820696e73756666696369656e746044820152606401610521565b60008181526001830160205260408120548015612304576000612215600183612e95565b855490915060009061222990600190612e95565b90508181146122aa57600086600001828154811061225757634e487b7160e01b600052603260045260246000fd5b906000526020600020015490508087600001848154811061228857634e487b7160e01b600052603260045260246000fd5b6000918252602080832090910192909255918252600188019052604090208390555b85548690806122c957634e487b7160e01b600052603160045260246000fd5b60019003818190600052602060002001600090559055856001016000868152602001908152602001600020600090556001935050505061054f565b600091505061054f565b82805461231a90612eef565b90600052602060002090601f01602090048101928261233c5760008555612382565b82601f1061235557805160ff1916838001178555612382565b82800160010185558215612382579182015b82811115612382578251825591602001919060010190612367565b5061238e929150612392565b5090565b5b8082111561238e5760008155600101612393565b60006001600160401b038311156123c0576123c0612f87565b6040516123d7601f8501601f191660200182612f2a565b8091508381528484840111156123ec57600080fd5b83836020830137600060208583010152509392505050565b80356001600160a01b038116811461241b57600080fd5b919050565b600082601f830112612430578081fd5b8135602061243d82612e3b565b60405161244a8282612f2a565b8381528281019150858301600585901b87018401881015612469578586fd5b855b858110156124875781358452928401929084019060010161246b565b5090979650505050505050565b600082601f8301126124a4578081fd5b610cfe838335602085016123a7565b80356001600160401b038116811461241b57600080fd5b6000602082840312156124db578081fd5b610cfe82612404565b600080604083850312156124f6578081fd5b6124ff83612404565b915061250d60208401612404565b90509250929050565b600080600080600060a0868803121561252d578081fd5b61253686612404565b945061254460208701612404565b935060408601356001600160401b038082111561255f578283fd5b61256b89838a01612420565b94506060880135915080821115612580578283fd5b61258c89838a01612420565b935060808801359150808211156125a1578283fd5b506125ae88828901612494565b9150509295509295909350565b600080600080600060a086880312156125d2578081fd5b6125db86612404565b94506125e960208701612404565b9350604086013592506060860135915060808601356001600160401b03811115612611578182fd5b6125ae88828901612494565b600080600060608486031215612631578283fd5b61263a84612404565b925060208401356001600160401b0380821115612655578384fd5b61266187838801612420565b93506040860135915080821115612676578283fd5b5061268386828701612420565b9150509250925092565b600080600080608085870312156126a2578384fd5b6126ab85612404565b935060208501356001600160401b03808211156126c6578485fd5b6126d288838901612420565b945060408701359150808211156126e7578384fd5b6126f388838901612420565b93506060870135915080821115612708578283fd5b5061271587828801612494565b91505092959194509250565b60008060408385031215612733578182fd5b61273c83612404565b915060208301358015158114612750578182fd5b809150509250929050565b6000806040838503121561276d578182fd5b61277683612404565b946020939093013593505050565b600080600060608486031215612798578081fd5b6127a184612404565b95602085013595506040909401359392505050565b600080600080608085870312156127cb578182fd5b6127d485612404565b9350602085013592506040850135915060608501356001600160401b038111156127fc578182fd5b61271587828801612494565b6000806040838503121561281a578182fd5b82356001600160401b0380821115612830578384fd5b818501915085601f830112612843578384fd5b8135602061285082612e3b565b60405161285d8282612f2a565b8381528281019150858301600585901b870184018b101561287c578889fd5b8896505b848710156128a55761289181612404565b835260019690960195918301918301612880565b50965050860135925050808211156128bb578283fd5b506128c885828601612420565b9150509250929050565b6000602082840312156128e3578081fd5b5035919050565b600080604083850312156128fc578182fd5b8235915061250d60208401612404565b6000806040838503121561291e578182fd5b50508035926020909101359150565b60006020828403121561293e578081fd5b8135610cfe8161303e565b60006020828403121561295a578081fd5b8151610cfe8161303e565b60008060408385031215612977578182fd5b82356001600160401b0381111561298c578283fd5b8301601f8101851361299c578283fd5b6129ab858235602084016123a7565b92505061250d602084016124b3565b600080604083850312156129cc578182fd5b8235915061250d602084016124b3565b6000815180845260208085019450808401835b83811015612a0b578151875295820195908201906001016129ef565b509495945050505050565b60008151808452612a2e816020860160208601612eac565b601f01601f19169290920160200192915050565b7f416363657373436f6e74726f6c3a206163636f756e7420000000000000000000815260008351612a7a816017850160208801612eac565b7001034b99036b4b9b9b4b733903937b6329607d1b6017918401918201528351612aab816028840160208801612eac565b01602801949350505050565b6001600160a01b0386811682528516602082015260a060408201819052600090612ae3908301866129dc565b8281036060840152612af581866129dc565b90508281036080840152612b098185612a16565b98975050505050505050565b6001600160a01b03868116825285166020820152604081018490526060810183905260a060808201819052600090612b4f90830184612a16565b979650505050505050565b602081526000610cfe60208301846129dc565b604081526000612b8060408301856129dc565b8281036020840152612b9281856129dc565b95945050505050565b602081526000610cfe6020830184612a16565b60208082526028908201527f455243313135353a204552433131353552656365697665722072656a656374656040820152676420746f6b656e7360c01b606082015260800190565b60208082526024908201527f455243313135353a206275726e20616d6f756e7420657863656564732062616c604082015263616e636560e01b606082015260800190565b60208082526029908201527f455243313135353a2063616c6c6572206973206e6f74206f776e6572206e6f7260408201526808185c1c1c9bdd995960ba1b606082015260800190565b60208082526025908201527f455243313135353a207472616e7366657220746f20746865207a65726f206164604082015264647265737360d81b606082015260800190565b60208082526023908201527f455243313135353a206275726e2066726f6d20746865207a65726f206164647260408201526265737360e81b606082015260800190565b60208082526038908201527f455243313135355072657365744d696e7465725061757365723a206d7573742060408201527f68617665206d696e74657220726f6c6520746f206d696e740000000000000000606082015260800190565b6020808252602a908201527f455243313135353a20696e73756666696369656e742062616c616e636520666f60408201526939103a3930b739b332b960b11b606082015260800190565b60208082526028908201527f455243313135353a2069647320616e6420616d6f756e7473206c656e677468206040820152670dad2e6dac2e8c6d60c31b606082015260800190565b60208082526021908201527f455243313135353a206d696e7420746f20746865207a65726f206164647265736040820152607360f81b606082015260800190565b60006001600160401b03821115612e5457612e54612f87565b5060051b60200190565b60008219821115612e7157612e71612f71565b500190565b6000816000190483118215151615612e9057612e90612f71565b500290565b600082821015612ea757612ea7612f71565b500390565b60005b83811015612ec7578181015183820152602001612eaf565b838111156106bd5750506000910152565b600081612ee757612ee7612f71565b506000190190565b600181811c90821680612f0357607f821691505b60208210811415612f2457634e487b7160e01b600052602260045260246000fd5b50919050565b601f8201601f191681016001600160401b0381118282101715612f4f57612f4f612f87565b6040525050565b6000600019821415612f6a57612f6a612f71565b5060010190565b634e487b7160e01b600052601160045260246000fd5b634e487b7160e01b600052604160045260246000fd5b600060033d1115612fb257600481823e5160e01c5b90565b600060443d1015612fc35790565b6040516003193d81016004833e81513d6001600160401b038160248401118184111715612ff257505050505090565b828501915081518181111561300a5750505050505090565b843d87010160208285010111156130245750505050505090565b61303360208286010187612f2a565b509095945050505050565b6001600160e01b031981168114610c3f57600080fdfea26469706673582212205d419801f1ffa388aecae3847efd3764776e9e3b0f750b7979255c2e211dee6564736f6c63430008040033",
  "linkReferences": {},
  "deployedLinkReferences": {}
}