{
  "_format": "hh-sol-artifact-1",
  "contractName": "NFTTicket",
  "sourceName": "contracts/NFTTicket.sol",
  "abi": [
    {
      "inputs": [
        {
          "internalType": "address",
          "name": "marketplaceAddress",
          "type": "address"
        }
      ],
      "stateMutability": "nonpayable",
      "type": "constructor"
    },
    {
      "anonymous": false,
      "inputs": [
        {
          "indexed": true,
          "internalType": "address",
          "name": "account",
          "type": "address"
        },
        {
          "indexed": true,
          "internalType": "address",
          "name": "operator",
          "type": "address"
        },
        {
          "indexed": false,
          "internalType": "bool",
          "name": "approved",
          "type": "bool"
        }
      ],
      "name": "ApprovalForAll",
      "type": "event"
    },
    {
      "anonymous": false,
      "inputs": [
        {
          "indexed": true,
          "internalType": "uint256",
          "name": "tokenId",
          "type": "uint256"
        }
      ],
      "name": "NFTTicketCreated",
      "type": "event"
    },
    {
      "anonymous": false,
      "inputs": [
        {
          "indexed": true,
          "internalType": "address",
          "name": "previousOwner",
          "type": "address"
        },
        {
          "indexed": true,
          "internalType": "address",
          "name": "newOwner",
          "type": "address"
        }
      ],
      "name": "OwnershipTransferred",
      "type": "event"
    },
    {
      "anonymous": false,
      "inputs": [
        {
          "indexed": false,
          "internalType": "address",
          "name": "account",
          "type": "address"
        }
      ],
      "name": "Paused",
      "type": "event"
    },
    {
      "anonymous": false,
      "inputs": [
        {
          "indexed": true,
          "internalType": "bytes32",
          "name": "role",
          "type": "bytes32"
        },
        {
          "indexed": true,
          "internalType": "bytes32",
          "name": "previousAdminRole",
          "type": "bytes32"
        },
        {
          "indexed": true,
          "internalType": "bytes32",
          "name": "newAdminRole",
          "type": "bytes32"
        }
      ],
      "name": "RoleAdminChanged",
      "type": "event"
    },
    {
      "anonymous": false,
      "inputs": [
        {
          "indexed": true,
          "internalType": "bytes32",
          "name": "role",
          "type": "bytes32"
        },
        {
          "indexed": true,
          "internalType": "address",
          "name": "account",
          "type": "address"
        },
        {
          "indexed": true,
          "internalType": "address",
          "name": "sender",
          "type": "address"
        }
      ],
      "name": "RoleGranted",
      "type": "event"
    },
    {
      "anonymous": false,
      "inputs": [
        {
          "indexed": true,
          "internalType": "bytes32",
          "name": "role",
          "type": "bytes32"
        },
        {
          "indexed": true,
          "internalType": "address",
          "name": "account",
          "type": "address"
        },
        {
          "indexed": true,
          "internalType": "address",
          "name": "sender",
          "type": "address"
        }
      ],
      "name": "RoleRevoked",
      "type": "event"
    },
    {
      "anonymous": false,
      "inputs": [
        {
          "indexed": true,
          "internalType": "address",
          "name": "operator",
          "type": "address"
        },
        {
          "indexed": true,
          "internalType": "address",
          "name": "from",
          "type": "address"
        },
        {
          "indexed": true,
          "internalType": "address",
          "name": "to",
          "type": "address"
        },
        {
          "indexed": false,
          "internalType": "uint256[]",
          "name": "ids",
          "type": "uint256[]"
        },
        {
          "indexed": false,
          "internalType": "uint256[]",
          "name": "values",
          "type": "uint256[]"
        }
      ],
      "name": "TransferBatch",
      "type": "event"
    },
    {
      "anonymous": false,
      "inputs": [
        {
          "indexed": true,
          "internalType": "address",
          "name": "operator",
          "type": "address"
        },
        {
          "indexed": true,
          "internalType": "address",
          "name": "from",
          "type": "address"
        },
        {
          "indexed": true,
          "internalType": "address",
          "name": "to",
          "type": "address"
        },
        {
          "indexed": false,
          "internalType": "uint256",
          "name": "id",
          "type": "uint256"
        },
        {
          "indexed": false,
          "internalType": "uint256",
          "name": "value",
          "type": "uint256"
        }
      ],
      "name": "TransferSingle",
      "type": "event"
    },
    {
      "anonymous": false,
      "inputs": [
        {
          "indexed": false,
          "internalType": "string",
          "name": "value",
          "type": "string"
        },
        {
          "indexed": true,
          "internalType": "uint256",
          "name": "id",
          "type": "uint256"
        }
      ],
      "name": "URI",
      "type": "event"
    },
    {
      "anonymous": false,
      "inputs": [
        {
          "indexed": false,
          "internalType": "address",
          "name": "account",
          "type": "address"
        }
      ],
      "name": "Unpaused",
      "type": "event"
    },
    {
      "inputs": [],
      "name": "DEFAULT_ADMIN_ROLE",
      "outputs": [
        {
          "internalType": "bytes32",
          "name": "",
          "type": "bytes32"
        }
      ],
      "stateMutability": "view",
      "type": "function"
    },
    {
      "inputs": [],
      "name": "MINTER_ROLE",
      "outputs": [
        {
          "internalType": "bytes32",
          "name": "",
          "type": "bytes32"
        }
      ],
      "stateMutability": "view",
      "type": "function"
    },
    {
      "inputs": [],
      "name": "PAUSER_ROLE",
      "outputs": [
        {
          "internalType": "bytes32",
          "name": "",
          "type": "bytes32"
        }
      ],
      "stateMutability": "view",
      "type": "function"
    },
    {
      "inputs": [
        {
          "internalType": "uint256",
          "name": "tokenId",
          "type": "uint256"
        },
        {
          "internalType": "uint64",
          "name": "amount",
          "type": "uint64"
        }
      ],
      "name": "addTokens",
      "outputs": [],
      "stateMutability": "nonpayable",
      "type": "function"
    },
    {
      "inputs": [
        {
          "internalType": "address",
          "name": "account",
          "type": "address"
        },
        {
          "internalType": "uint256",
          "name": "id",
          "type": "uint256"
        }
      ],
      "name": "balanceOf",
      "outputs": [
        {
          "internalType": "uint256",
          "name": "",
          "type": "uint256"
        }
      ],
      "stateMutability": "view",
      "type": "function"
    },
    {
      "inputs": [
        {
          "internalType": "address[]",
          "name": "accounts",
          "type": "address[]"
        },
        {
          "internalType": "uint256[]",
          "name": "ids",
          "type": "uint256[]"
        }
      ],
      "name": "balanceOfBatch",
      "outputs": [
        {
          "internalType": "uint256[]",
          "name": "",
          "type": "uint256[]"
        }
      ],
      "stateMutability": "view",
      "type": "function"
    },
    {
      "inputs": [
        {
          "internalType": "address",
          "name": "account",
          "type": "address"
        },
        {
          "internalType": "uint256",
          "name": "id",
          "type": "uint256"
        },
        {
          "internalType": "uint256",
          "name": "value",
          "type": "uint256"
        }
      ],
      "name": "burn",
      "outputs": [],
      "stateMutability": "nonpayable",
      "type": "function"
    },
    {
      "inputs": [
        {
          "internalType": "address",
          "name": "account",
          "type": "address"
        },
        {
          "internalType": "uint256[]",
          "name": "ids",
          "type": "uint256[]"
        },
        {
          "internalType": "uint256[]",
          "name": "values",
          "type": "uint256[]"
        }
      ],
      "name": "burnBatch",
      "outputs": [],
      "stateMutability": "nonpayable",
      "type": "function"
    },
    {
      "inputs": [
        {
          "internalType": "string",
          "name": "newUri",
          "type": "string"
        },
        {
          "internalType": "uint64",
          "name": "amount",
          "type": "uint64"
        }
      ],
      "name": "createToken",
      "outputs": [
        {
          "internalType": "uint256",
          "name": "",
          "type": "uint256"
        }
      ],
      "stateMutability": "nonpayable",
      "type": "function"
    },
    {
      "inputs": [
        {
          "internalType": "bytes32",
          "name": "role",
          "type": "bytes32"
        }
      ],
      "name": "getRoleAdmin",
      "outputs": [
        {
          "internalType": "bytes32",
          "name": "",
          "type": "bytes32"
        }
      ],
      "stateMutability": "view",
      "type": "function"
    },
    {
      "inputs": [
        {
          "internalType": "bytes32",
          "name": "role",
          "type": "bytes32"
        },
        {
          "internalType": "uint256",
          "name": "index",
          "type": "uint256"
        }
      ],
      "name": "getRoleMember",
      "outputs": [
        {
          "internalType": "address",
          "name": "",
          "type": "address"
        }
      ],
      "stateMutability": "view",
      "type": "function"
    },
    {
      "inputs": [
        {
          "internalType": "bytes32",
          "name": "role",
          "type": "bytes32"
        }
      ],
      "name": "getRoleMemberCount",
      "outputs": [
        {
          "internalType": "uint256",
          "name": "",
          "type": "uint256"
        }
      ],
      "stateMutability": "view",
      "type": "function"
    },
    {
      "inputs": [
        {
          "internalType": "uint256",
          "name": "tokenId",
          "type": "uint256"
        }
      ],
      "name": "giveResaleApproval",
      "outputs": [],
      "stateMutability": "nonpayable",
      "type": "function"
    },
    {
      "inputs": [
        {
          "internalType": "bytes32",
          "name": "role",
          "type": "bytes32"
        },
        {
          "internalType": "address",
          "name": "account",
          "type": "address"
        }
      ],
      "name": "grantRole",
      "outputs": [],
      "stateMutability": "nonpayable",
      "type": "function"
    },
    {
      "inputs": [
        {
          "internalType": "bytes32",
          "name": "role",
          "type": "bytes32"
        },
        {
          "internalType": "address",
          "name": "account",
          "type": "address"
        }
      ],
      "name": "hasRole",
      "outputs": [
        {
          "internalType": "bool",
          "name": "",
          "type": "bool"
        }
      ],
      "stateMutability": "view",
      "type": "function"
    },
    {
      "inputs": [
        {
          "internalType": "address",
          "name": "account",
          "type": "address"
        },
        {
          "internalType": "address",
          "name": "operator",
          "type": "address"
        }
      ],
      "name": "isApprovedForAll",
      "outputs": [
        {
          "internalType": "bool",
          "name": "",
          "type": "bool"
        }
      ],
      "stateMutability": "view",
      "type": "function"
    },
    {
      "inputs": [
        {
          "internalType": "address",
          "name": "to",
          "type": "address"
        },
        {
          "internalType": "uint256",
          "name": "id",
          "type": "uint256"
        },
        {
          "internalType": "uint256",
          "name": "amount",
          "type": "uint256"
        },
        {
          "internalType": "bytes",
          "name": "data",
          "type": "bytes"
        }
      ],
      "name": "mint",
      "outputs": [],
      "stateMutability": "nonpayable",
      "type": "function"
    },
    {
      "inputs": [
        {
          "internalType": "address",
          "name": "to",
          "type": "address"
        },
        {
          "internalType": "uint256[]",
          "name": "ids",
          "type": "uint256[]"
        },
        {
          "internalType": "uint256[]",
          "name": "amounts",
          "type": "uint256[]"
        },
        {
          "internalType": "bytes",
          "name": "data",
          "type": "bytes"
        }
      ],
      "name": "mintBatch",
      "outputs": [],
      "stateMutability": "nonpayable",
      "type": "function"
    },
    {
      "inputs": [],
      "name": "owner",
      "outputs": [
        {
          "internalType": "address",
          "name": "",
          "type": "address"
        }
      ],
      "stateMutability": "view",
      "type": "function"
    },
    {
      "inputs": [],
      "name": "pause",
      "outputs": [],
      "stateMutability": "nonpayable",
      "type": "function"
    },
    {
      "inputs": [],
      "name": "paused",
      "outputs": [
        {
          "internalType": "bool",
          "name": "",
          "type": "bool"
        }
      ],
      "stateMutability": "view",
      "type": "function"
    },
    {
      "inputs": [],
      "name": "renounceOwnership",
      "outputs": [],
      "stateMutability": "nonpayable",
      "type": "function"
    },
    {
      "inputs": [
        {
          "internalType": "bytes32",
          "name": "role",
          "type": "bytes32"
        },
        {
          "internalType": "address",
          "name": "account",
          "type": "address"
        }
      ],
      "name": "renounceRole",
      "outputs": [],
      "stateMutability": "nonpayable",
      "type": "function"
    },
    {
      "inputs": [
        {
          "internalType": "bytes32",
          "name": "role",
          "type": "bytes32"
        },
        {
          "internalType": "address",
          "name": "account",
          "type": "address"
        }
      ],
      "name": "revokeRole",
      "outputs": [],
      "stateMutability": "nonpayable",
      "type": "function"
    },
    {
      "inputs": [
        {
          "internalType": "address",
          "name": "from",
          "type": "address"
        },
        {
          "internalType": "address",
          "name": "to",
          "type": "address"
        },
        {
          "internalType": "uint256[]",
          "name": "ids",
          "type": "uint256[]"
        },
        {
          "internalType": "uint256[]",
          "name": "amounts",
          "type": "uint256[]"
        },
        {
          "internalType": "bytes",
          "name": "data",
          "type": "bytes"
        }
      ],
      "name": "safeBatchTransferFrom",
      "outputs": [],
      "stateMutability": "nonpayable",
      "type": "function"
    },
    {
      "inputs": [
        {
          "internalType": "address",
          "name": "from",
          "type": "address"
        },
        {
          "internalType": "address",
          "name": "to",
          "type": "address"
        },
        {
          "internalType": "uint256",
          "name": "id",
          "type": "uint256"
        },
        {
          "internalType": "uint256",
          "name": "amount",
          "type": "uint256"
        },
        {
          "internalType": "bytes",
          "name": "data",
          "type": "bytes"
        }
      ],
      "name": "safeTransferFrom",
      "outputs": [],
      "stateMutability": "nonpayable",
      "type": "function"
    },
    {
      "inputs": [
        {
          "internalType": "address",
          "name": "operator",
          "type": "address"
        },
        {
          "internalType": "bool",
          "name": "approved",
          "type": "bool"
        }
      ],
      "name": "setApprovalForAll",
      "outputs": [],
      "stateMutability": "nonpayable",
      "type": "function"
    },
    {
      "inputs": [
        {
          "internalType": "bytes4",
          "name": "interfaceId",
          "type": "bytes4"
        }
      ],
      "name": "supportsInterface",
      "outputs": [
        {
          "internalType": "bool",
          "name": "",
          "type": "bool"
        }
      ],
      "stateMutability": "view",
      "type": "function"
    },
    {
      "inputs": [
        {
          "internalType": "address",
          "name": "newOwner",
          "type": "address"
        }
      ],
      "name": "transferOwnership",
      "outputs": [],
      "stateMutability": "nonpayable",
      "type": "function"
    },
    {
      "inputs": [],
      "name": "unpause",
      "outputs": [],
      "stateMutability": "nonpayable",
      "type": "function"
    },
    {
      "inputs": [
        {
          "internalType": "uint256",
          "name": "tokenId",
          "type": "uint256"
        }
      ],
      "name": "uri",
      "outputs": [
        {
          "internalType": "string",
          "name": "",
          "type": "string"
        }
      ],
      "stateMutability": "view",
      "type": "function"
    }
  ],
  "bytecode": "0x60806040523480156200001157600080fd5b50604051620034ae380380620034ae83398101604081905262000034916200036b565b604080516020810190915260008152806200004f81620000f1565b506005805460ff19169055620000676000336200010a565b620000937f9f2df0fed2c77648de5860a4cc508cd0818c85b8b8a1ab4ceeef8d981c8956a6336200010a565b620000bf7f65d7a28e3265b37a6474929f336521b332c1681b933f6cb9f3376673440d862a336200010a565b50620000cb3362000116565b600780546001600160a01b0319166001600160a01b0392909216919091179055620003d8565b805162000106906004906020840190620002c5565b5050565b62000106828262000170565b600580546001600160a01b03838116610100818102610100600160a81b031985161790945560405193909204169182907f8be0079c531659141344cd1fd0a4f28419497f9722a3daafe3b4186f6b6457e090600090a35050565b620001878282620001b360201b62000fc51760201c565b6000828152600160209081526040909120620001ae9183906200104962000253821b17901c565b505050565b6000828152602081815260408083206001600160a01b038516845290915290205460ff1662000106576000828152602081815260408083206001600160a01b03851684529091529020805460ff191660011790556200020f3390565b6001600160a01b0316816001600160a01b0316837f2f8788117e7eff1d82e926ec794901d17c78024a50270940304540a733656f0d60405160405180910390a45050565b60006200026a836001600160a01b03841662000273565b90505b92915050565b6000818152600183016020526040812054620002bc575081546001818101845560008481526020808220909301849055845484825282860190935260409020919091556200026d565b5060006200026d565b828054620002d3906200039b565b90600052602060002090601f016020900481019282620002f7576000855562000342565b82601f106200031257805160ff191683800117855562000342565b8280016001018555821562000342579182015b828111156200034257825182559160200191906001019062000325565b506200035092915062000354565b5090565b5b8082111562000350576000815560010162000355565b6000602082840312156200037d578081fd5b81516001600160a01b038116811462000394578182fd5b9392505050565b600181811c90821680620003b057607f821691505b60208210811415620003d257634e487b7160e01b600052602260045260246000fd5b50919050565b6130c680620003e86000396000f3fe608060405234801561001057600080fd5b50600436106101e45760003560e01c80637e78146c1161010f578063d5391393116100a2578063e985e9c511610071578063e985e9c514610444578063f242432a14610480578063f2fde38b14610493578063f5298aca146104a657600080fd5b8063d5391393146103d0578063d547741f146103f7578063d83a04b31461040a578063e63ab1e91461041d57600080fd5b806391d14854116100de57806391d148541461038f578063a217fddf146103a2578063a22cb465146103aa578063ca15c873146103bd57600080fd5b80637e78146c146103375780638456cb591461034a5780638da5cb5b146103525780639010d07c1461037c57600080fd5b80632f2ff15d116101875780635c975abb116101565780635c975abb146102fe5780636b20c45414610309578063715018a61461031c578063731133e91461032457600080fd5b80632f2ff15d146102b057806336568abe146102c35780633f4ba83a146102d65780634e1273f4146102de57600080fd5b80631f7fdffa116101c35780631f7fdffa1461025257806322078a6e14610267578063248a9ca31461027a5780632eb2c2d61461029d57600080fd5b8062fdd58e146101e957806301ffc9a71461020f5780630e89341c14610232575b600080fd5b6101fc6101f7366004612797565b6104b9565b6040519081526020015b60405180910390f35b61022261021d366004612969565b610555565b6040519015158152602001610206565b61024561024036600461290e565b610560565b6040516102069190612bd7565b6102656102603660046126c9565b6106a7565b005b6102656102753660046129f6565b6106ff565b6101fc61028836600461290e565b60009081526020819052604090206001015490565b6102656102ab366004612552565b6107b6565b6102656102be366004612926565b61084d565b6102656102d1366004612926565b610877565b6102656108f1565b6102f16102ec366004612844565b610997565b6040516102069190612b96565b60055460ff16610222565b610265610317366004612659565b610af8565b610265610b3b565b6102656103323660046127f2565b610ba5565b61026561034536600461290e565b610bf7565b610265610c7e565b60055461010090046001600160a01b03165b6040516001600160a01b039091168152602001610206565b61036461038a366004612948565b610d22565b61022261039d366004612926565b610d41565b6101fc600081565b6102656103b836600461275d565b610d6a565b6101fc6103cb36600461290e565b610d75565b6101fc7f9f2df0fed2c77648de5860a4cc508cd0818c85b8b8a1ab4ceeef8d981c8956a681565b610265610405366004612926565b610d8c565b6101fc6104183660046129a1565b610db1565b6101fc7f65d7a28e3265b37a6474929f336521b332c1681b933f6cb9f3376673440d862a81565b610222610452366004612520565b6001600160a01b03918216600090815260036020908152604080832093909416825291909152205460ff1690565b61026561048e3660046125f7565b610e6f565b6102656104a1366004612506565b610eb4565b6102656104b43660046127c0565b610f82565b60006001600160a01b03831661052a5760405162461bcd60e51b815260206004820152602b60248201527f455243313135353a2062616c616e636520717565727920666f7220746865207a60448201526a65726f206164647265737360a81b60648201526084015b60405180910390fd5b5060008181526002602090815260408083206001600160a01b03861684529091529020545b92915050565b600061054f8261105e565b600081815260086020526040902080546060919061057d90612f2b565b151590506106095760405162461bcd60e51b815260206004820152604d60248201527f4e6f207572692065786973747320666f722074686520746f6b656e2c20706c6560448201527f61736520637265617465206f6e65207573696e672074686520736574546f6b6560648201526c372ab93490333ab731ba34b7b760991b608482015260a401610521565b6000828152600860205260409020805461062290612f2b565b80601f016020809104026020016040519081016040528092919081815260200182805461064e90612f2b565b801561069b5780601f106106705761010080835404028352916020019161069b565b820191906000526020600020905b81548152906001019060200180831161067e57829003601f168201915b50505050509050919050565b6106d17f9f2df0fed2c77648de5860a4cc508cd0818c85b8b8a1ab4ceeef8d981c8956a633610d41565b6106ed5760405162461bcd60e51b815260040161052190612d47565b6106f98484848461109e565b50505050565b6000828152600860205260409020600101546001600160a01b031633146107775760405162461bcd60e51b815260206004820152602660248201527f4f6e6c7920746f6b656e206f776e65722063616e206d696e7420657874726120604482015265746f6b656e7360d01b6064820152608401610521565b61079b3383836001600160401b031660405180602001604052806000815250611215565b6007546107b2906001600160a01b03166001610d6a565b5050565b6001600160a01b0385163314806107d257506107d28533610452565b6108395760405162461bcd60e51b815260206004820152603260248201527f455243313135353a207472616e736665722063616c6c6572206973206e6f74206044820152711bdddb995c881b9bdc88185c1c1c9bdd995960721b6064820152608401610521565b6108468585858585611300565b5050505050565b600082815260208190526040902060010154610868816114c9565b61087283836114d3565b505050565b6001600160a01b03811633146108e75760405162461bcd60e51b815260206004820152602f60248201527f416363657373436f6e74726f6c3a2063616e206f6e6c792072656e6f756e636560448201526e103937b632b9903337b91039b2b63360891b6064820152608401610521565b6107b282826114f5565b61091b7f65d7a28e3265b37a6474929f336521b332c1681b933f6cb9f3376673440d862a33610d41565b61098d5760405162461bcd60e51b815260206004820152603b60248201527f455243313135355072657365744d696e7465725061757365723a206d7573742060448201527f686176652070617573657220726f6c6520746f20756e706175736500000000006064820152608401610521565b610995611517565b565b606081518351146109fc5760405162461bcd60e51b815260206004820152602960248201527f455243313135353a206163636f756e747320616e6420696473206c656e677468604482015268040dad2e6dac2e8c6d60bb1b6064820152608401610521565b600083516001600160401b03811115610a2557634e487b7160e01b600052604160045260246000fd5b604051908082528060200260200182016040528015610a4e578160200160208202803683370190505b50905060005b8451811015610af057610ab5858281518110610a8057634e487b7160e01b600052603260045260246000fd5b6020026020010151858381518110610aa857634e487b7160e01b600052603260045260246000fd5b60200260200101516104b9565b828281518110610ad557634e487b7160e01b600052603260045260246000fd5b6020908102919091010152610ae981612f92565b9050610a54565b509392505050565b6001600160a01b038316331480610b145750610b148333610452565b610b305760405162461bcd60e51b815260040161052190612c76565b6108728383836115aa565b6005546001600160a01b03610100909104163314610b9b5760405162461bcd60e51b815260206004820181905260248201527f4f776e61626c653a2063616c6c6572206973206e6f7420746865206f776e65726044820152606401610521565b6109956000611765565b610bcf7f9f2df0fed2c77648de5860a4cc508cd0818c85b8b8a1ab4ceeef8d981c8956a633610d41565b610beb5760405162461bcd60e51b815260040161052190612d47565b6106f984848484611215565b6000610c0333836104b9565b11610c645760405162461bcd60e51b815260206004820152602b60248201527f596f75206d757374206f776e2074686973204e465420696e206f72646572207460448201526a1bc81c995cd95b1b081a5d60aa1b6064820152608401610521565b600754610c7b906001600160a01b03166001610d6a565b50565b610ca87f65d7a28e3265b37a6474929f336521b332c1681b933f6cb9f3376673440d862a33610d41565b610d1a5760405162461bcd60e51b815260206004820152603960248201527f455243313135355072657365744d696e7465725061757365723a206d7573742060448201527f686176652070617573657220726f6c6520746f207061757365000000000000006064820152608401610521565b6109956117bf565b6000828152600160205260408120610d3a908361183a565b9392505050565b6000918252602082815260408084206001600160a01b0393909316845291905290205460ff1690565b6107b2338383611846565b600081815260016020526040812061054f90611927565b600082815260208190526040902060010154610da7816114c9565b61087283836114f5565b6000610dc1600680546001019055565b6000610dcc60065490565b9050610df23382856001600160401b031660405180602001604052806000815250611215565b600754610e09906001600160a01b03166001610d6a565b60008181526008602090815260409091206001810180546001600160a01b031916331790558551610e3c9287019061234a565b5060405181907fb063e4b2120f98ebc6bca03d87cb731336ee09217a0c71ed0741571891591efc90600090a29392505050565b6001600160a01b038516331480610e8b5750610e8b8533610452565b610ea75760405162461bcd60e51b815260040161052190612c76565b6108468585858585611931565b6005546001600160a01b03610100909104163314610f145760405162461bcd60e51b815260206004820181905260248201527f4f776e61626c653a2063616c6c6572206973206e6f7420746865206f776e65726044820152606401610521565b6001600160a01b038116610f795760405162461bcd60e51b815260206004820152602660248201527f4f776e61626c653a206e6577206f776e657220697320746865207a65726f206160448201526564647265737360d01b6064820152608401610521565b610c7b81611765565b6001600160a01b038316331480610f9e5750610f9e8333610452565b610fba5760405162461bcd60e51b815260040161052190612c76565b610872838383611a6d565b610fcf8282610d41565b6107b2576000828152602081815260408083206001600160a01b03851684529091529020805460ff191660011790556110053390565b6001600160a01b0316816001600160a01b0316837f2f8788117e7eff1d82e926ec794901d17c78024a50270940304540a733656f0d60405160405180910390a45050565b6000610d3a836001600160a01b038416611b89565b60006001600160e01b03198216636cdb3d1360e11b148061108f57506001600160e01b031982166303a24d0760e21b145b8061054f575061054f82611bd8565b6001600160a01b0384166110c45760405162461bcd60e51b815260040161052190612e36565b81518351146110e55760405162461bcd60e51b815260040161052190612dee565b336110f581600087878787611bfd565b60005b84518110156111ad5783818151811061112157634e487b7160e01b600052603260045260246000fd5b60200260200101516002600087848151811061114d57634e487b7160e01b600052603260045260246000fd5b602002602001015181526020019081526020016000206000886001600160a01b03166001600160a01b0316815260200190815260200160002060008282546111959190612e9a565b909155508190506111a581612f92565b9150506110f8565b50846001600160a01b031660006001600160a01b0316826001600160a01b03167f4a39dc06d4c0dbc64b70af90fd698a233a518aa5d07e595d983b8c0526c8f7fb87876040516111fe929190612ba9565b60405180910390a461084681600087878787611c0b565b6001600160a01b03841661123b5760405162461bcd60e51b815260040161052190612e36565b33600061124785611d76565b9050600061125485611d76565b905061126583600089858589611bfd565b60008681526002602090815260408083206001600160a01b038b16845290915281208054879290611297908490612e9a565b909155505060408051878152602081018790526001600160a01b03808a1692600092918716917fc3d58168c5ae7397731d063d5bbf3d657854427343f4c083240f7aacaa2d0f62910160405180910390a46112f783600089898989611dcf565b50505050505050565b81518351146113215760405162461bcd60e51b815260040161052190612dee565b6001600160a01b0384166113475760405162461bcd60e51b815260040161052190612cbf565b33611356818787878787611bfd565b60005b845181101561145b57600085828151811061138457634e487b7160e01b600052603260045260246000fd5b6020026020010151905060008583815181106113b057634e487b7160e01b600052603260045260246000fd5b60209081029190910181015160008481526002835260408082206001600160a01b038e1683529093529190912054909150818110156114015760405162461bcd60e51b815260040161052190612da4565b60008381526002602090815260408083206001600160a01b038e8116855292528083208585039055908b16825281208054849290611440908490612e9a565b925050819055505050508061145490612f92565b9050611359565b50846001600160a01b0316866001600160a01b0316826001600160a01b03167f4a39dc06d4c0dbc64b70af90fd698a233a518aa5d07e595d983b8c0526c8f7fb87876040516114ab929190612ba9565b60405180910390a46114c1818787878787611c0b565b505050505050565b610c7b8133611e99565b6114dd8282610fc5565b60008281526001602052604090206108729082611049565b6114ff8282611efd565b60008281526001602052604090206108729082611f62565b60055460ff166115605760405162461bcd60e51b815260206004820152601460248201527314185d5cd8589b194e881b9bdd081c185d5cd95960621b6044820152606401610521565b6005805460ff191690557f5db9ee0a495bf2e6ff9c91a7834c1ba4fdd244a5e8aa4e537bd38aeae4b073aa335b6040516001600160a01b03909116815260200160405180910390a1565b6001600160a01b0383166115d05760405162461bcd60e51b815260040161052190612d04565b80518251146115f15760405162461bcd60e51b815260040161052190612dee565b600033905061161481856000868660405180602001604052806000815250611bfd565b60005b83518110156116f857600084828151811061164257634e487b7160e01b600052603260045260246000fd5b60200260200101519050600084838151811061166e57634e487b7160e01b600052603260045260246000fd5b60209081029190910181015160008481526002835260408082206001600160a01b038c1683529093529190912054909150818110156116bf5760405162461bcd60e51b815260040161052190612c32565b60009283526002602090815260408085206001600160a01b038b16865290915290922091039055806116f081612f92565b915050611617565b5060006001600160a01b0316846001600160a01b0316826001600160a01b03167f4a39dc06d4c0dbc64b70af90fd698a233a518aa5d07e595d983b8c0526c8f7fb8686604051611749929190612ba9565b60405180910390a46040805160208101909152600090526106f9565b600580546001600160a01b03838116610100818102610100600160a81b031985161790945560405193909204169182907f8be0079c531659141344cd1fd0a4f28419497f9722a3daafe3b4186f6b6457e090600090a35050565b60055460ff16156118055760405162461bcd60e51b815260206004820152601060248201526f14185d5cd8589b194e881c185d5cd95960821b6044820152606401610521565b6005805460ff191660011790557f62e78cea01bee320cd4e420270b5ea74000d11b0c9f74754ebdbfc544b05a25861158d3390565b6000610d3a8383611f77565b816001600160a01b0316836001600160a01b031614156118ba5760405162461bcd60e51b815260206004820152602960248201527f455243313135353a2073657474696e6720617070726f76616c20737461747573604482015268103337b91039b2b63360b91b6064820152608401610521565b6001600160a01b03838116600081815260036020908152604080832094871680845294825291829020805460ff191686151590811790915591519182527f17307eab39ab6107e8899845ad3d59bd9653f200f220920489ca2b5937696c31910160405180910390a3505050565b600061054f825490565b6001600160a01b0384166119575760405162461bcd60e51b815260040161052190612cbf565b33600061196385611d76565b9050600061197085611d76565b9050611980838989858589611bfd565b60008681526002602090815260408083206001600160a01b038c168452909152902054858110156119c35760405162461bcd60e51b815260040161052190612da4565b60008781526002602090815260408083206001600160a01b038d8116855292528083208985039055908a16825281208054889290611a02908490612e9a565b909155505060408051888152602081018890526001600160a01b03808b16928c821692918816917fc3d58168c5ae7397731d063d5bbf3d657854427343f4c083240f7aacaa2d0f62910160405180910390a4611a62848a8a8a8a8a611dcf565b505050505050505050565b6001600160a01b038316611a935760405162461bcd60e51b815260040161052190612d04565b336000611a9f84611d76565b90506000611aac84611d76565b9050611acc83876000858560405180602001604052806000815250611bfd565b60008581526002602090815260408083206001600160a01b038a16845290915290205484811015611b0f5760405162461bcd60e51b815260040161052190612c32565b60008681526002602090815260408083206001600160a01b038b81168086529184528285208a8703905582518b81529384018a90529092908816917fc3d58168c5ae7397731d063d5bbf3d657854427343f4c083240f7aacaa2d0f62910160405180910390a46040805160208101909152600090526112f7565b6000818152600183016020526040812054611bd05750815460018181018455600084815260208082209093018490558454848252828601909352604090209190915561054f565b50600061054f565b60006001600160e01b03198216635a05180f60e01b148061054f575061054f82611faf565b6114c1868686868686611fe4565b6001600160a01b0384163b156114c15760405163bc197c8160e01b81526001600160a01b0385169063bc197c8190611c4f9089908990889088908890600401612af3565b602060405180830381600087803b158015611c6957600080fd5b505af1925050508015611c99575060408051601f3d908101601f19168201909252611c9691810190612985565b60015b611d4657611ca5612fd9565b806308c379a01415611cdf5750611cba612ff1565b80611cc55750611ce1565b8060405162461bcd60e51b81526004016105219190612bd7565b505b60405162461bcd60e51b815260206004820152603460248201527f455243313135353a207472616e7366657220746f206e6f6e20455243313135356044820152732932b1b2b4bb32b91034b6b83632b6b2b73a32b960611b6064820152608401610521565b6001600160e01b0319811663bc197c8160e01b146112f75760405162461bcd60e51b815260040161052190612bea565b60408051600180825281830190925260609160009190602080830190803683370190505090508281600081518110611dbe57634e487b7160e01b600052603260045260246000fd5b602090810291909101015292915050565b6001600160a01b0384163b156114c15760405163f23a6e6160e01b81526001600160a01b0385169063f23a6e6190611e139089908990889088908890600401612b51565b602060405180830381600087803b158015611e2d57600080fd5b505af1925050508015611e5d575060408051601f3d908101601f19168201909252611e5a91810190612985565b60015b611e6957611ca5612fd9565b6001600160e01b0319811663f23a6e6160e01b146112f75760405162461bcd60e51b815260040161052190612bea565b611ea38282610d41565b6107b257611ebb816001600160a01b0316601461204c565b611ec683602061204c565b604051602001611ed7929190612a7e565b60408051601f198184030181529082905262461bcd60e51b825261052191600401612bd7565b611f078282610d41565b156107b2576000828152602081815260408083206001600160a01b0385168085529252808320805460ff1916905551339285917ff6391f5c32d9c69d2a47ea670b442974b53935d1edc7fd64eb21e047a839171b9190a45050565b6000610d3a836001600160a01b03841661222d565b6000826000018281548110611f9c57634e487b7160e01b600052603260045260246000fd5b9060005260206000200154905092915050565b60006001600160e01b03198216637965db0b60e01b148061054f57506301ffc9a760e01b6001600160e01b031983161461054f565b60055460ff16156114c15760405162461bcd60e51b815260206004820152602c60248201527f455243313135355061757361626c653a20746f6b656e207472616e736665722060448201526b1dda1a5b19481c185d5cd95960a21b6064820152608401610521565b6060600061205b836002612eb2565b612066906002612e9a565b6001600160401b0381111561208b57634e487b7160e01b600052604160045260246000fd5b6040519080825280601f01601f1916602001820160405280156120b5576020820181803683370190505b509050600360fc1b816000815181106120de57634e487b7160e01b600052603260045260246000fd5b60200101906001600160f81b031916908160001a905350600f60fb1b8160018151811061211b57634e487b7160e01b600052603260045260246000fd5b60200101906001600160f81b031916908160001a905350600061213f846002612eb2565b61214a906001612e9a565b90505b60018111156121de576f181899199a1a9b1b9c1cb0b131b232b360811b85600f166010811061218c57634e487b7160e01b600052603260045260246000fd5b1a60f81b8282815181106121b057634e487b7160e01b600052603260045260246000fd5b60200101906001600160f81b031916908160001a90535060049490941c936121d781612f14565b905061214d565b508315610d3a5760405162461bcd60e51b815260206004820181905260248201527f537472696e67733a20686578206c656e67746820696e73756666696369656e746044820152606401610521565b60008181526001830160205260408120548015612340576000612251600183612ed1565b855490915060009061226590600190612ed1565b90508181146122e657600086600001828154811061229357634e487b7160e01b600052603260045260246000fd5b90600052602060002001549050808760000184815481106122c457634e487b7160e01b600052603260045260246000fd5b6000918252602080832090910192909255918252600188019052604090208390555b855486908061230557634e487b7160e01b600052603160045260246000fd5b60019003818190600052602060002001600090559055856001016000868152602001908152602001600020600090556001935050505061054f565b600091505061054f565b82805461235690612f2b565b90600052602060002090601f01602090048101928261237857600085556123be565b82601f1061239157805160ff19168380011785556123be565b828001600101855582156123be579182015b828111156123be5782518255916020019190600101906123a3565b506123ca9291506123ce565b5090565b5b808211156123ca57600081556001016123cf565b60006001600160401b038311156123fc576123fc612fc3565b604051612413601f8501601f191660200182612f66565b80915083815284848401111561242857600080fd5b83836020830137600060208583010152509392505050565b80356001600160a01b038116811461245757600080fd5b919050565b600082601f83011261246c578081fd5b8135602061247982612e77565b6040516124868282612f66565b8381528281019150858301600585901b870184018810156124a5578586fd5b855b858110156124c3578135845292840192908401906001016124a7565b5090979650505050505050565b600082601f8301126124e0578081fd5b610d3a838335602085016123e3565b80356001600160401b038116811461245757600080fd5b600060208284031215612517578081fd5b610d3a82612440565b60008060408385031215612532578081fd5b61253b83612440565b915061254960208401612440565b90509250929050565b600080600080600060a08688031215612569578081fd5b61257286612440565b945061258060208701612440565b935060408601356001600160401b038082111561259b578283fd5b6125a789838a0161245c565b945060608801359150808211156125bc578283fd5b6125c889838a0161245c565b935060808801359150808211156125dd578283fd5b506125ea888289016124d0565b9150509295509295909350565b600080600080600060a0868803121561260e578081fd5b61261786612440565b945061262560208701612440565b9350604086013592506060860135915060808601356001600160401b0381111561264d578182fd5b6125ea888289016124d0565b60008060006060848603121561266d578283fd5b61267684612440565b925060208401356001600160401b0380821115612691578384fd5b61269d8783880161245c565b935060408601359150808211156126b2578283fd5b506126bf8682870161245c565b9150509250925092565b600080600080608085870312156126de578384fd5b6126e785612440565b935060208501356001600160401b0380821115612702578485fd5b61270e8883890161245c565b94506040870135915080821115612723578384fd5b61272f8883890161245c565b93506060870135915080821115612744578283fd5b50612751878288016124d0565b91505092959194509250565b6000806040838503121561276f578182fd5b61277883612440565b91506020830135801515811461278c578182fd5b809150509250929050565b600080604083850312156127a9578182fd5b6127b283612440565b946020939093013593505050565b6000806000606084860312156127d4578081fd5b6127dd84612440565b95602085013595506040909401359392505050565b60008060008060808587031215612807578182fd5b61281085612440565b9350602085013592506040850135915060608501356001600160401b03811115612838578182fd5b612751878288016124d0565b60008060408385031215612856578182fd5b82356001600160401b038082111561286c578384fd5b818501915085601f83011261287f578384fd5b8135602061288c82612e77565b6040516128998282612f66565b8381528281019150858301600585901b870184018b10156128b8578889fd5b8896505b848710156128e1576128cd81612440565b8352600196909601959183019183016128bc565b50965050860135925050808211156128f7578283fd5b506129048582860161245c565b9150509250929050565b60006020828403121561291f578081fd5b5035919050565b60008060408385031215612938578182fd5b8235915061254960208401612440565b6000806040838503121561295a578182fd5b50508035926020909101359150565b60006020828403121561297a578081fd5b8135610d3a8161307a565b600060208284031215612996578081fd5b8151610d3a8161307a565b600080604083850312156129b3578182fd5b82356001600160401b038111156129c8578283fd5b8301601f810185136129d8578283fd5b6129e7858235602084016123e3565b925050612549602084016124ef565b60008060408385031215612a08578182fd5b82359150612549602084016124ef565b6000815180845260208085019450808401835b83811015612a4757815187529582019590820190600101612a2b565b509495945050505050565b60008151808452612a6a816020860160208601612ee8565b601f01601f19169290920160200192915050565b7f416363657373436f6e74726f6c3a206163636f756e7420000000000000000000815260008351612ab6816017850160208801612ee8565b7001034b99036b4b9b9b4b733903937b6329607d1b6017918401918201528351612ae7816028840160208801612ee8565b01602801949350505050565b6001600160a01b0386811682528516602082015260a060408201819052600090612b1f90830186612a18565b8281036060840152612b318186612a18565b90508281036080840152612b458185612a52565b98975050505050505050565b6001600160a01b03868116825285166020820152604081018490526060810183905260a060808201819052600090612b8b90830184612a52565b979650505050505050565b602081526000610d3a6020830184612a18565b604081526000612bbc6040830185612a18565b8281036020840152612bce8185612a18565b95945050505050565b602081526000610d3a6020830184612a52565b60208082526028908201527f455243313135353a204552433131353552656365697665722072656a656374656040820152676420746f6b656e7360c01b606082015260800190565b60208082526024908201527f455243313135353a206275726e20616d6f756e7420657863656564732062616c604082015263616e636560e01b606082015260800190565b60208082526029908201527f455243313135353a2063616c6c6572206973206e6f74206f776e6572206e6f7260408201526808185c1c1c9bdd995960ba1b606082015260800190565b60208082526025908201527f455243313135353a207472616e7366657220746f20746865207a65726f206164604082015264647265737360d81b606082015260800190565b60208082526023908201527f455243313135353a206275726e2066726f6d20746865207a65726f206164647260408201526265737360e81b606082015260800190565b60208082526038908201527f455243313135355072657365744d696e7465725061757365723a206d7573742060408201527f68617665206d696e74657220726f6c6520746f206d696e740000000000000000606082015260800190565b6020808252602a908201527f455243313135353a20696e73756666696369656e742062616c616e636520666f60408201526939103a3930b739b332b960b11b606082015260800190565b60208082526028908201527f455243313135353a2069647320616e6420616d6f756e7473206c656e677468206040820152670dad2e6dac2e8c6d60c31b606082015260800190565b60208082526021908201527f455243313135353a206d696e7420746f20746865207a65726f206164647265736040820152607360f81b606082015260800190565b60006001600160401b03821115612e9057612e90612fc3565b5060051b60200190565b60008219821115612ead57612ead612fad565b500190565b6000816000190483118215151615612ecc57612ecc612fad565b500290565b600082821015612ee357612ee3612fad565b500390565b60005b83811015612f03578181015183820152602001612eeb565b838111156106f95750506000910152565b600081612f2357612f23612fad565b506000190190565b600181811c90821680612f3f57607f821691505b60208210811415612f6057634e487b7160e01b600052602260045260246000fd5b50919050565b601f8201601f191681016001600160401b0381118282101715612f8b57612f8b612fc3565b6040525050565b6000600019821415612fa657612fa6612fad565b5060010190565b634e487b7160e01b600052601160045260246000fd5b634e487b7160e01b600052604160045260246000fd5b600060033d1115612fee57600481823e5160e01c5b90565b600060443d1015612fff5790565b6040516003193d81016004833e81513d6001600160401b03816024840111818411171561302e57505050505090565b82850191508151818111156130465750505050505090565b843d87010160208285010111156130605750505050505090565b61306f60208286010187612f66565b509095945050505050565b6001600160e01b031981168114610c7b57600080fdfea2646970667358221220086f75b5e8ace84d8fce3790f819043436dcd549b44fac78a1b1fa9f72514b9f64736f6c63430008040033",
  "linkReferences": {},
  "deployedLinkReferences": {}
}