{
  "_format": "hh-sol-artifact-1",
  "contractName": "TicketMarket",
  "sourceName": "contracts/TicketMarket.sol",
  "abi": [
    {
      "anonymous": false,
      "inputs": [
        {
          "indexed": true,
          "internalType": "uint256",
          "name": "eventId",
          "type": "uint256"
        },
        {
          "indexed": false,
          "internalType": "string",
          "name": "uri",
          "type": "string"
        },
        {
          "indexed": false,
          "internalType": "uint64",
          "name": "startDate",
          "type": "uint64"
        },
        {
          "indexed": false,
          "internalType": "uint256",
          "name": "ticketTotal",
          "type": "uint256"
        },
        {
          "indexed": false,
          "internalType": "uint256",
          "name": "ticketsSold",
          "type": "uint256"
        },
        {
          "indexed": false,
          "internalType": "address",
          "name": "owner",
          "type": "address"
        }
      ],
      "name": "MarketEventCreated",
      "type": "event"
    },
    {
      "anonymous": false,
      "inputs": [
        {
          "indexed": true,
          "internalType": "uint256",
          "name": "tokenId",
          "type": "uint256"
        },
        {
          "indexed": true,
          "internalType": "uint256",
          "name": "eventId",
          "type": "uint256"
        },
        {
          "indexed": false,
          "internalType": "uint256",
          "name": "price",
          "type": "uint256"
        },
        {
          "indexed": false,
          "internalType": "uint256",
          "name": "purchaseLimit",
          "type": "uint256"
        },
        {
          "indexed": false,
          "internalType": "uint256",
          "name": "totalSupply",
          "type": "uint256"
        },
        {
          "indexed": false,
          "internalType": "uint256",
          "name": "royaltyFee",
          "type": "uint256"
        },
        {
          "indexed": false,
          "internalType": "uint256",
          "name": "maxResalePrice",
          "type": "uint256"
        }
      ],
      "name": "MarketTicketCreated",
      "type": "event"
    },
    {
      "anonymous": false,
      "inputs": [
        {
          "indexed": true,
          "internalType": "uint256",
          "name": "resaleId",
          "type": "uint256"
        },
        {
          "indexed": true,
          "internalType": "uint256",
          "name": "tokenId",
          "type": "uint256"
        },
        {
          "indexed": false,
          "internalType": "address",
          "name": "seller",
          "type": "address"
        },
        {
          "indexed": false,
          "internalType": "uint256",
          "name": "resalePrice",
          "type": "uint256"
        },
        {
          "indexed": false,
          "internalType": "bool",
          "name": "sold",
          "type": "bool"
        }
      ],
      "name": "ResaleTicketCreated",
      "type": "event"
    },
    {
      "anonymous": false,
      "inputs": [
        {
          "indexed": true,
          "internalType": "uint256",
          "name": "tokenId",
          "type": "uint256"
        },
        {
          "indexed": false,
          "internalType": "address",
          "name": "ownerAddress",
          "type": "address"
        }
      ],
      "name": "TicketValidated",
      "type": "event"
    },
    {
      "inputs": [
        {
          "internalType": "address",
          "name": "nftContract",
          "type": "address"
        },
        {
          "internalType": "uint256",
          "name": "tokenId",
          "type": "uint256"
        },
        {
          "internalType": "uint256",
          "name": "amount",
          "type": "uint256"
        }
      ],
      "name": "addMoreTicketsToMarket",
      "outputs": [],
      "stateMutability": "nonpayable",
      "type": "function"
    },
    {
      "inputs": [
        {
          "internalType": "address",
          "name": "nftContract",
          "type": "address"
        },
        {
          "internalType": "uint256",
          "name": "_resaleId",
          "type": "uint256"
        }
      ],
      "name": "buyResaleTicket",
      "outputs": [],
      "stateMutability": "payable",
      "type": "function"
    },
    {
      "inputs": [
        {
          "internalType": "address",
          "name": "nftContract",
          "type": "address"
        },
        {
          "internalType": "uint256",
          "name": "tokenId",
          "type": "uint256"
        },
        {
          "internalType": "uint256",
          "name": "amount",
          "type": "uint256"
        }
      ],
      "name": "buyTicket",
      "outputs": [],
      "stateMutability": "payable",
      "type": "function"
    },
    {
      "inputs": [
        {
          "internalType": "string",
          "name": "uri",
          "type": "string"
        },
        {
          "internalType": "uint64",
          "name": "startDate",
          "type": "uint64"
        }
      ],
      "name": "createEvent",
      "outputs": [
        {
          "internalType": "uint256",
          "name": "",
          "type": "uint256"
        }
      ],
      "stateMutability": "nonpayable",
      "type": "function"
    },
    {
      "inputs": [
        {
          "internalType": "uint256",
          "name": "eventId",
          "type": "uint256"
        },
        {
          "internalType": "uint256",
          "name": "tokenId",
          "type": "uint256"
        },
        {
          "internalType": "address",
          "name": "nftContract",
          "type": "address"
        },
        {
          "internalType": "uint256",
          "name": "purchaseLimit",
          "type": "uint256"
        },
        {
          "internalType": "uint256",
          "name": "totalSupply",
          "type": "uint256"
        },
        {
          "internalType": "uint256",
          "name": "price",
          "type": "uint256"
        },
        {
          "internalType": "uint256",
          "name": "royaltyFee",
          "type": "uint256"
        },
        {
          "internalType": "uint256",
          "name": "maxResalePrice",
          "type": "uint256"
        }
      ],
      "name": "createMarketTicket",
      "outputs": [],
      "stateMutability": "nonpayable",
      "type": "function"
    },
    {
      "inputs": [],
      "name": "getAllEvents",
      "outputs": [
        {
          "components": [
            {
              "internalType": "uint256",
              "name": "eventId",
              "type": "uint256"
            },
            {
              "internalType": "string",
              "name": "uri",
              "type": "string"
            },
            {
              "internalType": "uint64",
              "name": "startDate",
              "type": "uint64"
            },
            {
              "internalType": "uint256",
              "name": "ticketTotal",
              "type": "uint256"
            },
            {
              "internalType": "uint256",
              "name": "ticketsSold",
              "type": "uint256"
            },
            {
              "internalType": "address payable",
              "name": "owner",
              "type": "address"
            }
          ],
          "internalType": "struct TicketMarket.MarketEvent[]",
          "name": "",
          "type": "tuple[]"
        }
      ],
      "stateMutability": "view",
      "type": "function"
    },
    {
      "inputs": [
        {
          "internalType": "uint256",
          "name": "_eventId",
          "type": "uint256"
        }
      ],
      "name": "getEvent",
      "outputs": [
        {
          "components": [
            {
              "internalType": "uint256",
              "name": "eventId",
              "type": "uint256"
            },
            {
              "internalType": "string",
              "name": "uri",
              "type": "string"
            },
            {
              "internalType": "uint64",
              "name": "startDate",
              "type": "uint64"
            },
            {
              "internalType": "uint256",
              "name": "ticketTotal",
              "type": "uint256"
            },
            {
              "internalType": "uint256",
              "name": "ticketsSold",
              "type": "uint256"
            },
            {
              "internalType": "address payable",
              "name": "owner",
              "type": "address"
            }
          ],
          "internalType": "struct TicketMarket.MarketEvent",
          "name": "",
          "type": "tuple"
        }
      ],
      "stateMutability": "view",
      "type": "function"
    },
    {
      "inputs": [
        {
          "internalType": "uint256",
          "name": "_eventId",
          "type": "uint256"
        }
      ],
      "name": "getEventTickets",
      "outputs": [
        {
          "components": [
            {
              "internalType": "uint256",
              "name": "tokenId",
              "type": "uint256"
            },
            {
              "internalType": "uint256",
              "name": "eventId",
              "type": "uint256"
            },
            {
              "internalType": "uint256",
              "name": "price",
              "type": "uint256"
            },
            {
              "internalType": "uint256",
              "name": "purchaseLimit",
              "type": "uint256"
            },
            {
              "internalType": "uint256",
              "name": "totalSupply",
              "type": "uint256"
            },
            {
              "internalType": "uint256",
              "name": "royaltyFee",
              "type": "uint256"
            },
            {
              "internalType": "uint256",
              "name": "maxResalePrice",
              "type": "uint256"
            }
          ],
          "internalType": "struct TicketMarket.MarketTicket[]",
          "name": "",
          "type": "tuple[]"
        }
      ],
      "stateMutability": "view",
      "type": "function"
    },
    {
      "inputs": [],
      "name": "getMyEvents",
      "outputs": [
        {
          "components": [
            {
              "internalType": "uint256",
              "name": "eventId",
              "type": "uint256"
            },
            {
              "internalType": "string",
              "name": "uri",
              "type": "string"
            },
            {
              "internalType": "uint64",
              "name": "startDate",
              "type": "uint64"
            },
            {
              "internalType": "uint256",
              "name": "ticketTotal",
              "type": "uint256"
            },
            {
              "internalType": "uint256",
              "name": "ticketsSold",
              "type": "uint256"
            },
            {
              "internalType": "address payable",
              "name": "owner",
              "type": "address"
            }
          ],
          "internalType": "struct TicketMarket.MarketEvent[]",
          "name": "",
          "type": "tuple[]"
        }
      ],
      "stateMutability": "view",
      "type": "function"
    },
    {
      "inputs": [],
      "name": "getMyResaleListings",
      "outputs": [
        {
          "components": [
            {
              "internalType": "uint256",
              "name": "resaleId",
              "type": "uint256"
            },
            {
              "internalType": "uint256",
              "name": "tokenId",
              "type": "uint256"
            },
            {
              "internalType": "address payable",
              "name": "seller",
              "type": "address"
            },
            {
              "internalType": "uint256",
              "name": "resalePrice",
              "type": "uint256"
            },
            {
              "internalType": "bool",
              "name": "sold",
              "type": "bool"
            }
          ],
          "internalType": "struct TicketMarket.ResaleTicket[]",
          "name": "",
          "type": "tuple[]"
        }
      ],
      "stateMutability": "view",
      "type": "function"
    },
    {
      "inputs": [
        {
          "internalType": "address",
          "name": "nftContract",
          "type": "address"
        }
      ],
      "name": "getMyTickets",
      "outputs": [
        {
          "components": [
            {
              "internalType": "uint256",
              "name": "tokenId",
              "type": "uint256"
            },
            {
              "internalType": "uint256",
              "name": "eventId",
              "type": "uint256"
            },
            {
              "internalType": "uint256",
              "name": "price",
              "type": "uint256"
            },
            {
              "internalType": "uint256",
              "name": "purchaseLimit",
              "type": "uint256"
            },
            {
              "internalType": "uint256",
              "name": "totalSupply",
              "type": "uint256"
            },
            {
              "internalType": "uint256",
              "name": "royaltyFee",
              "type": "uint256"
            },
            {
              "internalType": "uint256",
              "name": "maxResalePrice",
              "type": "uint256"
            }
          ],
          "internalType": "struct TicketMarket.MarketTicket[]",
          "name": "",
          "type": "tuple[]"
        }
      ],
      "stateMutability": "view",
      "type": "function"
    },
    {
      "inputs": [
        {
          "internalType": "uint256",
          "name": "_tokenId",
          "type": "uint256"
        }
      ],
      "name": "getResaleTickets",
      "outputs": [
        {
          "components": [
            {
              "internalType": "uint256",
              "name": "resaleId",
              "type": "uint256"
            },
            {
              "internalType": "uint256",
              "name": "tokenId",
              "type": "uint256"
            },
            {
              "internalType": "address payable",
              "name": "seller",
              "type": "address"
            },
            {
              "internalType": "uint256",
              "name": "resalePrice",
              "type": "uint256"
            },
            {
              "internalType": "bool",
              "name": "sold",
              "type": "bool"
            }
          ],
          "internalType": "struct TicketMarket.ResaleTicket[]",
          "name": "",
          "type": "tuple[]"
        }
      ],
      "stateMutability": "view",
      "type": "function"
    },
    {
      "inputs": [
        {
          "internalType": "address",
          "name": "nftContract",
          "type": "address"
        },
        {
          "internalType": "uint256",
          "name": "_tokenId",
          "type": "uint256"
        },
        {
          "internalType": "uint256",
          "name": "price",
          "type": "uint256"
        }
      ],
      "name": "listOnResale",
      "outputs": [
        {
          "internalType": "uint256",
          "name": "",
          "type": "uint256"
        }
      ],
      "stateMutability": "nonpayable",
      "type": "function"
    },
    {
      "inputs": [
        {
          "internalType": "address",
          "name": "",
          "type": "address"
        },
        {
          "internalType": "address",
          "name": "",
          "type": "address"
        },
        {
          "internalType": "uint256[]",
          "name": "",
          "type": "uint256[]"
        },
        {
          "internalType": "uint256[]",
          "name": "",
          "type": "uint256[]"
        },
        {
          "internalType": "bytes",
          "name": "",
          "type": "bytes"
        }
      ],
      "name": "onERC1155BatchReceived",
      "outputs": [
        {
          "internalType": "bytes4",
          "name": "",
          "type": "bytes4"
        }
      ],
      "stateMutability": "nonpayable",
      "type": "function"
    },
    {
      "inputs": [
        {
          "internalType": "address",
          "name": "",
          "type": "address"
        },
        {
          "internalType": "address",
          "name": "",
          "type": "address"
        },
        {
          "internalType": "uint256",
          "name": "",
          "type": "uint256"
        },
        {
          "internalType": "uint256",
          "name": "",
          "type": "uint256"
        },
        {
          "internalType": "bytes",
          "name": "",
          "type": "bytes"
        }
      ],
      "name": "onERC1155Received",
      "outputs": [
        {
          "internalType": "bytes4",
          "name": "",
          "type": "bytes4"
        }
      ],
      "stateMutability": "nonpayable",
      "type": "function"
    },
    {
      "inputs": [
        {
          "internalType": "bytes4",
          "name": "interfaceId",
          "type": "bytes4"
        }
      ],
      "name": "supportsInterface",
      "outputs": [
        {
          "internalType": "bool",
          "name": "",
          "type": "bool"
        }
      ],
      "stateMutability": "view",
      "type": "function"
    },
    {
      "inputs": [
        {
          "internalType": "address",
          "name": "nftContract",
          "type": "address"
        },
        {
          "internalType": "uint256",
          "name": "tokenId",
          "type": "uint256"
        },
        {
          "internalType": "bytes32",
          "name": "hash",
          "type": "bytes32"
        },
        {
          "internalType": "uint8",
          "name": "v",
          "type": "uint8"
        },
        {
          "internalType": "bytes32",
          "name": "r",
          "type": "bytes32"
        },
        {
          "internalType": "bytes32",
          "name": "s",
          "type": "bytes32"
        }
      ],
      "name": "validateTicket",
      "outputs": [
        {
          "internalType": "address",
          "name": "",
          "type": "address"
        }
      ],
      "stateMutability": "nonpayable",
      "type": "function"
    }
  ],
  "bytecode": "0x608060405234801561001057600080fd5b506131f1806100206000396000f3fe6080604052600436106100fe5760003560e01c8063aa1a3e6d11610095578063ca261ce111610064578063ca261ce1146102eb578063d686c5301461030b578063d88b24a91461032b578063e3e5c2b91461034b578063f23a6e611461035e57600080fd5b8063aa1a3e6d1461025e578063b4ec509e1461027e578063bc197c8114610291578063c27a500d146102d657600080fd5b8063772dd824116100d1578063772dd824146101b557806389e64822146101ed5780638aaf26861461020f5780638ead0c9a1461023c57600080fd5b806301ffc9a7146101035780633548124b1461013857806343f231321461015a5780636d1884e014610188575b600080fd5b34801561010f57600080fd5b5061012361011e366004612ba3565b61038a565b60405190151581526020015b60405180910390f35b34801561014457600080fd5b5061014d61039b565b60405161012f9190612db0565b34801561016657600080fd5b5061017a610175366004612b71565b61060f565b60405190815260200161012f565b34801561019457600080fd5b506101a86101a3366004612c37565b6109af565b60405161012f9190613088565b3480156101c157600080fd5b506101d56101d0366004612b13565b610b0d565b6040516001600160a01b03909116815260200161012f565b3480156101f957600080fd5b50610202610e1c565b60405161012f9190612e93565b34801561021b57600080fd5b5061022f61022a3660046129c9565b611046565b60405161012f9190612e11565b34801561024857600080fd5b5061025c610257366004612b71565b611332565b005b34801561026a57600080fd5b5061025c610279366004612c67565b611558565b61025c61028c366004612aea565b6118fe565b34801561029d57600080fd5b506102bd6102ac3660046129e3565b63bc197c8160e01b95945050505050565b6040516001600160e01b0319909116815260200161012f565b3480156102e257600080fd5b5061014d611c2f565b3480156102f757600080fd5b5061022f610306366004612c37565b611ea2565b34801561031757600080fd5b50610202610326366004612c37565b61209c565b34801561033757600080fd5b5061017a610346366004612bcb565b6122b0565b61025c610359366004612b71565b612445565b34801561036a57600080fd5b506102bd610379366004612a88565b63f23a6e6160e01b95945050505050565b60006103958261275e565b92915050565b606060006103a860015490565b905060008060005b8381101561040b5733600360006103c88460016130cb565b81526020810191909152604001600020600501546001600160a01b031614156103f9576103f66001846130cb565b92505b8061040381613174565b9150506103b0565b506000826001600160401b0381111561043457634e487b7160e01b600052604160045260246000fd5b60405190808252806020026020018201604052801561046d57816020015b61045a612793565b8152602001906001900390816104525790505b50905060005b8481101561060657336003600061048b8460016130cb565b81526020810191909152604001600020600501546001600160a01b031614156105f45760006104bb8260016130cb565b90506000600360008381526020019081526020016000209050806040518060c0016040529081600082015481526020016001820180546104fa90613139565b80601f016020809104026020016040519081016040528092919081815260200182805461052690613139565b80156105735780601f1061054857610100808354040283529160200191610573565b820191906000526020600020905b81548152906001019060200180831161055657829003601f168201915b505050918352505060028201546001600160401b0316602082015260038201546040820152600482015460608201526005909101546001600160a01b031660809091015284518590879081106105d957634e487b7160e01b600052603260045260246000fd5b60209081029190910101526105ef6001866130cb565b945050505b806105fe81613174565b915050610473565b50949350505050565b604051627eeac760e11b81523360048201526024810183905260009081906001600160a01b0386169062fdd58e9060440160206040518083038186803b15801561065857600080fd5b505afa15801561066c573d6000803e3d6000fd5b505050506040513d601f19601f820116820180604052508101906106909190612c4f565b116106fb5760405162461bcd60e51b815260206004820152603060248201527f596f7520646f206e6f74206f776e20746865207469636b657420796f7520617260448201526f19481d1c9e5a5b99c81d1bc81b1a5cdd60821b60648201526084015b60405180910390fd5b60008381526004602052604090206006015482111561078e5760405162461bcd60e51b815260206004820152604360248201527f526573616c652070726963652073686f756c64206e6f7420657863656564207460448201527f6865206d617820726573616c6520707269636520666f722074686973207469636064820152621ad95d60ea1b608482015260a4016106f2565b600083815260066020908152604080832033845290915290205460ff161561080c5760405162461bcd60e51b815260206004820152602b60248201527f54686973207469636b65742068617320616c7265616479206265656e2075736560448201526a1908199bdc88195d995b9d60aa1b60648201526084016106f2565b60008061081860025490565b90506001805b80801561082b5750828211155b156108685760008281526005602052604090206004015460ff16151560011415610856575091508160005b8161086081613174565b92505061081e565b80156108825761087c600280546001019055565b60025493505b6040805160a08101825285815260208082018a815233838501818152606085018c81526000608087018181528c8252600590965287902095518655925160018087019190915590516002860180546001600160a01b0319166001600160a01b039283161790559251600386015592516004948501805460ff19169115159190911790559351637921219560e11b8152908c169363f242432a9361092d93919230928e92909101612d78565b600060405180830381600087803b15801561094757600080fd5b505af115801561095b573d6000803e3d6000fd5b505060408051338152602081018a905260008183015290518a93508792507f10162b7f8060fb4aab218f44d857dbcc081b02dffc4dd0ddc6068f616cb373b09181900360600190a350919695505050505050565b6109b7612793565b600082815260036020526040902054610a125760405162461bcd60e51b815260206004820152601960248201527f54686973206576656e7420646f6573206e6f742065786973740000000000000060448201526064016106f2565b600360008381526020019081526020016000206040518060c001604052908160008201548152602001600182018054610a4a90613139565b80601f0160208091040260200160405190810160405280929190818152602001828054610a7690613139565b8015610ac35780601f10610a9857610100808354040283529160200191610ac3565b820191906000526020600020905b815481529060010190602001808311610aa657829003601f168201915b505050918352505060028201546001600160401b0316602082015260038201546040820152600482015460608201526005909101546001600160a01b031660809091015292915050565b600085815260046020908152604080832060010154835260039091528120600501546001600160a01b03163314610bb75760405162461bcd60e51b815260206004820152604260248201527f596f7520646f206e6f7420746865206f776e20746865206576656e7420666f7260448201527f20746865207469636b657420747279696e6720746f2062652076616c69646174606482015261195960f21b608482015260a4016106f2565b6040517f19457468657265756d205369676e6564204d6573736167653a0a3332000000006020820152603c8101869052600090605c0160408051601f198184030181528282528051602091820120600080855291840180845281905260ff89169284019290925260608301879052608083018690529092509060019060a0016020604051602081039080840390855afa158015610c58573d6000803e3d6000fd5b5050604051601f19810151627eeac760e11b82526001600160a01b038082166004840152602483018c9052909350600092508b169062fdd58e9060440160206040518083038186803b158015610cad57600080fd5b505afa158015610cc1573d6000803e3d6000fd5b505050506040513d601f19601f82011682018060405250810190610ce59190612c4f565b11610d325760405162461bcd60e51b815260206004820152601a60248201527f4164647265737320646f6573206e6f74206f776e20746f6b656e00000000000060448201526064016106f2565b60008881526006602090815260408083206001600160a01b038516845290915290205460ff1615610daf5760405162461bcd60e51b815260206004820152602160248201527f557365722068617320616c72656164792076616c696461746564207469636b656044820152601d60fa1b60648201526084016106f2565b60008881526006602090815260408083206001600160a01b03851680855290835292819020805460ff191660011790555191825289917f7523a5038b0221808d5987c7a4c3a6d9074ed76bf247f76665b2ed493e8fd1fb910160405180910390a298975050505050505050565b60606000610e2960025490565b905060008060005b83811015610ebb573360056000610e498460016130cb565b81526020810191909152604001600020600201546001600160a01b0316148015610e96575060056000610e7d8360016130cb565b815260208101919091526040016000206004015460ff16155b15610ea957610ea66001846130cb565b92505b80610eb381613174565b915050610e31565b506000826001600160401b03811115610ee457634e487b7160e01b600052604160045260246000fd5b604051908082528060200260200182016040528015610f1d57816020015b610f0a6127db565b815260200190600190039081610f025790505b50905060005b84811015610606573360056000610f3b8460016130cb565b81526020810191909152604001600020600201546001600160a01b0316148015610f88575060056000610f6f8360016130cb565b815260208101919091526040016000206004015460ff16155b15611034576000610f9a8260016130cb565b600081815260056020908152604091829020825160a0810184528154815260018201549281019290925260028101546001600160a01b03169282019290925260038201546060820152600482015460ff16151560808201528551929350909185908790811061101957634e487b7160e01b600052603260045260246000fd5b602090810291909101015261102f6001866130cb565b945050505b8061103e81613174565b915050610f23565b6060600061105360005490565b905060008060005b8381101561111f5760016001600160a01b03871662fdd58e3361107e85856130cb565b6040516001600160e01b031960e085901b1681526001600160a01b039092166004830152602482015260440160206040518083038186803b1580156110c257600080fd5b505afa1580156110d6573d6000803e3d6000fd5b505050506040513d601f19601f820116820180604052508101906110fa9190612c4f565b1061110d5761110a6001846130cb565b92505b8061111781613174565b91505061105b565b506000826001600160401b0381111561114857634e487b7160e01b600052604160045260246000fd5b6040519080825280602002602001820160405280156111b957816020015b6111a66040518060e00160405280600081526020016000815260200160008152602001600081526020016000815260200160008152602001600081525090565b8152602001906001900390816111665790505b50905060005b848110156113285760016001600160a01b03881662fdd58e336111e285856130cb565b6040516001600160e01b031960e085901b1681526001600160a01b039092166004830152602482015260440160206040518083038186803b15801561122657600080fd5b505afa15801561123a573d6000803e3d6000fd5b505050506040513d601f19601f8201168201806040525081019061125e9190612c4f565b106113165760006112708260016130cb565b90506000600460008381526020019081526020016000209050806040518060e00160405290816000820154815260200160018201548152602001600282015481526020016003820154815260200160048201548152602001600582015481526020016006820154815250508486815181106112fb57634e487b7160e01b600052603260045260246000fd5b60209081029190910101526113116001866130cb565b945050505b8061132081613174565b9150506111bf565b5095945050505050565b600082815260046020819052604091829020600101549151627eeac760e11b815233918101919091526024810184905282906001600160a01b0386169062fdd58e9060440160206040518083038186803b15801561138f57600080fd5b505afa1580156113a3573d6000803e3d6000fd5b505050506040513d601f19601f820116820180604052508101906113c79190612c4f565b10156113e55760405162461bcd60e51b81526004016106f290612f48565b6000818152600360205260409020600501546001600160a01b0316331461144a5760405162461bcd60e51b8152602060048201526019602482015278165bdd48191bc81b9bdd081bdddb881d1a1a5cc8195d995b9d603a1b60448201526064016106f2565b6000818152600360205260409020600201546001600160401b039081164290911611156114895760405162461bcd60e51b81526004016106f290613051565b604051637921219560e11b81526001600160a01b0385169063f242432a906114bb903390309088908890600401612d78565b600060405180830381600087803b1580156114d557600080fd5b505af11580156114e9573d6000803e3d6000fd5b5050506000828152600360208190526040909120015461150b915083906130cb565b6000828152600360208181526040808420909201939093558582526004928390529020015461153b9083906130cb565b600093845260046020819052604090942090930192909255505050565b600083116115a85760405162461bcd60e51b815260206004820152601c60248201527f5072696365206d757374206265206174206c656173742031207765690000000060448201526064016106f2565b604051627eeac760e11b81523360048201526024810188905284906001600160a01b0388169062fdd58e9060440160206040518083038186803b1580156115ee57600080fd5b505afa158015611602573d6000803e3d6000fd5b505050506040513d601f19601f820116820180604052508101906116269190612c4f565b10156116445760405162461bcd60e51b81526004016106f290612f48565b6000888152600360205260409020600501546001600160a01b031633146116a95760405162461bcd60e51b8152602060048201526019602482015278165bdd48191bc81b9bdd081bdddb881d1a1a5cc8195d995b9d603a1b60448201526064016106f2565b6000888152600360205260409020600201546001600160401b039081164290911611156116e85760405162461bcd60e51b81526004016106f290613051565b606482111561176d5760405162461bcd60e51b815260206004820152604560248201527f526f79616c747920666565206d75737420626520612070657263656e7461676560448201527f2c207468657265666f72652069742063616e2774206265206d6f72652074686160648201526406e203130360dc1b608482015260a4016106f2565b61177b600080546001019055565b6040518060e001604052808881526020018981526020018481526020018681526020018581526020018381526020018281525060046000898152602001908152602001600020600082015181600001556020820151816001015560408201518160020155606082015181600301556080820151816004015560a0820151816005015560c08201518160060155905050856001600160a01b031663f242432a33308a886040518563ffffffff1660e01b815260040161183c9493929190612d78565b600060405180830381600087803b15801561185657600080fd5b505af115801561186a573d6000803e3d6000fd5b5050506000898152600360208190526040909120015461188c915085906130cb565b60008981526003602081815260409283902090910192909255805185815291820187905281018590526060810183905260808101829052889088907fc44cdb87b53b35fccd68bb206e5900d975bed5f74a2c7bf11e3ad4791d13334b9060a00160405180910390a35050505050505050565b60008181526005602081815260408084206003808201546001808401548089526004808852868a2080860154938101546002880154818d52968a52978b208a0154908a01549a8c90529890975295909301549096949592946001600160a01b0392831693909216919060ff16156119dd5760405162461bcd60e51b815260206004820152603760248201527f54686973207469636b6574206973206e6f742063757272656e746c792062656960448201527f6e67207265736f6c64206f6e20746865206d61726b657400000000000000000060648201526084016106f2565b604051627eeac760e11b8152336004820152602481018790526000906001600160a01b038b169062fdd58e9060440160206040518083038186803b158015611a2457600080fd5b505afa158015611a38573d6000803e3d6000fd5b505050506040513d601f19601f82011682018060405250810190611a5c9190612c4f565b611a669087613122565b11611a835760405162461bcd60e51b81526004016106f290612f9c565b863414611aa25760405162461bcd60e51b81526004016106f29061300d565b6000848152600360205260409020600201546001600160401b03908116429091161115611ae15760405162461bcd60e51b81526004016106f290613051565b600086815260066020908152604080832033808552925291829020805460ff191690559051637921219560e11b81526001600160a01b038b169163f242432a91611b349130918b90600190600401612d78565b600060405180830381600087803b158015611b4e57600080fd5b505af1158015611b62573d6000803e3d6000fd5b50505060008981526005602052905081611b7d60648a6130e3565b611b879190613103565b90506000611b95828a613122565b6040519091506001600160a01b0386169082156108fc029083906000818181858888f19350505050158015611bce573d6000803e3d6000fd5b506040516001600160a01b0385169083156108fc029084906000818181858888f19350505050158015611c05573d6000803e3d6000fd5b50505060009788525050600560205250506040909320600401805460ff1916600117905550505050565b60606000611c3c60015490565b905060008060005b83811015611ca35760036000611c5b8360016130cb565b81526020810191909152604001600020600201546001600160401b039081164290911611611c9157611c8e6001846130cb565b92505b80611c9b81613174565b915050611c44565b506000826001600160401b03811115611ccc57634e487b7160e01b600052604160045260246000fd5b604051908082528060200260200182016040528015611d0557816020015b611cf2612793565b815260200190600190039081611cea5790505b50905060005b848110156106065760036000611d228360016130cb565b81526020810191909152604001600020600201546001600160401b039081164290911611611e90576000611d578260016130cb565b90506000600360008381526020019081526020016000209050806040518060c001604052908160008201548152602001600182018054611d9690613139565b80601f0160208091040260200160405190810160405280929190818152602001828054611dc290613139565b8015611e0f5780601f10611de457610100808354040283529160200191611e0f565b820191906000526020600020905b815481529060010190602001808311611df257829003601f168201915b505050918352505060028201546001600160401b0316602082015260038201546040820152600482015460608201526005909101546001600160a01b03166080909101528451859087908110611e7557634e487b7160e01b600052603260045260246000fd5b6020908102919091010152611e8b6001866130cb565b945050505b80611e9a81613174565b915050611d0b565b60606000611eaf60005490565b905060008060005b83811015611f07578560046000611ecf8460016130cb565b8152602001908152602001600020600101541415611ef557611ef26001846130cb565b92505b80611eff81613174565b915050611eb7565b506000826001600160401b03811115611f3057634e487b7160e01b600052604160045260246000fd5b604051908082528060200260200182016040528015611fa157816020015b611f8e6040518060e00160405280600081526020016000815260200160008152602001600081526020016000815260200160008152602001600081525090565b815260200190600190039081611f4e5790505b50905060005b84811015611328578660046000611fbf8460016130cb565b815260200190815260200160002060010154141561208a576000611fe48260016130cb565b90506000600460008381526020019081526020016000209050806040518060e001604052908160008201548152602001600182015481526020016002820154815260200160038201548152602001600482015481526020016005820154815260200160068201548152505084868151811061206f57634e487b7160e01b600052603260045260246000fd5b60209081029190910101526120856001866130cb565b945050505b8061209481613174565b915050611fa7565b606060006120a960025490565b905060008060005b838110156121305785600560006120c98460016130cb565b81526020019081526020016000206001015414801561210b5750600560006120f28360016130cb565b815260208101919091526040016000206004015460ff16155b1561211e5761211b6001846130cb565b92505b8061212881613174565b9150506120b1565b506000826001600160401b0381111561215957634e487b7160e01b600052604160045260246000fd5b60405190808252806020026020018201604052801561219257816020015b61217f6127db565b8152602001906001900390816121775790505b50905060005b848110156113285786600560006121b08460016130cb565b8152602001908152602001600020600101541480156121f25750600560006121d98360016130cb565b815260208101919091526040016000206004015460ff16155b1561229e5760006122048260016130cb565b600081815260056020908152604091829020825160a0810184528154815260018201549281019290925260028101546001600160a01b03169282019290925260038201546060820152600482015460ff16151560808201528551929350909185908790811061228357634e487b7160e01b600052603260045260246000fd5b60209081029190910101526122996001866130cb565b945050505b806122a881613174565b915050612198565b6000336122bc57600080fd5b816001600160401b0316426001600160401b0316111561231e5760405162461bcd60e51b815260206004820152601760248201527f446174652068617320616c72656164792070617373656400000000000000000060448201526064016106f2565b61232c600180546001019055565b600061233760015490565b6040805160c08101825282815260208082018881526001600160401b03881683850152600060608401819052608084018190523360a08501528581526003835293909320825181559251805194955091936123989260018501920190612815565b5060408281015160028301805467ffffffffffffffff19166001600160401b03909216919091179055606083015160038301556080830151600483015560a090920151600590910180546001600160a01b0319166001600160a01b039092169190911790555181907fe798e3d1c981dccaa805cf4220c73e55a59c9fa14d08e15cb196809ca6576abb90612436908790879060009081903390612eff565b60405180910390a29392505050565b60008281526004602081815260408084206002810154600380830154600190930154808852945294829020600501549151627eeac760e11b8152309481019490945260248401879052926001600160a01b039182169188169062fdd58e9060440160206040518083038186803b1580156124be57600080fd5b505afa1580156124d2573d6000803e3d6000fd5b505050506040513d601f19601f820116820180604052508101906124f69190612c4f565b85111561255d5760405162461bcd60e51b815260206004820152602f60248201527f4e6f7420656e6f756768207469636b6574732072656d61696e696e67206f6e2060448201526e746865206d61726b6574706c61636560881b60648201526084016106f2565b604051627eeac760e11b8152336004820152602481018790526001600160a01b0388169062fdd58e9060440160206040518083038186803b1580156125a157600080fd5b505afa1580156125b5573d6000803e3d6000fd5b505050506040513d601f19601f820116820180604052508101906125d99190612c4f565b6125e39084613122565b8511156126025760405162461bcd60e51b81526004016106f290612f9c565b61260c8585613103565b341461262a5760405162461bcd60e51b81526004016106f29061300d565b6000828152600360205260409020600201546001600160401b039081164290911611156126695760405162461bcd60e51b81526004016106f290613051565b600086815260066020908152604080832033808552925291829020805460ff191690559051637921219560e11b81526001600160a01b0389169163f242432a916126bb9130918b908b90600401612d78565b600060405180830381600087803b1580156126d557600080fd5b505af11580156126e9573d6000803e3d6000fd5b50505060008381526003602052604090206004015461270a915086906130cb565b6000838152600360205260408082206004019290925590516001600160a01b038316913480156108fc02929091818181858888f19350505050158015612754573d6000803e3d6000fd5b5050505050505050565b60006001600160e01b03198216630271189760e51b148061039557506301ffc9a760e01b6001600160e01b0319831614610395565b6040518060c00160405280600081526020016060815260200160006001600160401b03168152602001600081526020016000815260200160006001600160a01b031681525090565b6040518060a00160405280600081526020016000815260200160006001600160a01b03168152602001600081526020016000151581525090565b82805461282190613139565b90600052602060002090601f0160209004810192826128435760008555612889565b82601f1061285c57805160ff1916838001178555612889565b82800160010185558215612889579182015b8281111561288957825182559160200191906001019061286e565b50612895929150612899565b5090565b5b80821115612895576000815560010161289a565b60006001600160401b038311156128c7576128c76131a5565b6128da601f8401601f191660200161309b565b90508281528383830111156128ee57600080fd5b828260208301376000602084830101529392505050565b80356001600160a01b038116811461291c57600080fd5b919050565b600082601f830112612931578081fd5b813560206001600160401b0382111561294c5761294c6131a5565b8160051b61295b82820161309b565b838152828101908684018388018501891015612975578687fd5b8693505b85841015612997578035835260019390930192918401918401612979565b50979650505050505050565b600082601f8301126129b3578081fd5b6129c2838335602085016128ae565b9392505050565b6000602082840312156129da578081fd5b6129c282612905565b600080600080600060a086880312156129fa578081fd5b612a0386612905565b9450612a1160208701612905565b935060408601356001600160401b0380821115612a2c578283fd5b612a3889838a01612921565b94506060880135915080821115612a4d578283fd5b612a5989838a01612921565b93506080880135915080821115612a6e578283fd5b50612a7b888289016129a3565b9150509295509295909350565b600080600080600060a08688031215612a9f578081fd5b612aa886612905565b9450612ab660208701612905565b9350604086013592506060860135915060808601356001600160401b03811115612ade578182fd5b612a7b888289016129a3565b60008060408385031215612afc578182fd5b612b0583612905565b946020939093013593505050565b60008060008060008060c08789031215612b2b578081fd5b612b3487612905565b95506020870135945060408701359350606087013560ff81168114612b57578182fd5b9598949750929560808101359460a0909101359350915050565b600080600060608486031215612b85578283fd5b612b8e84612905565b95602085013595506040909401359392505050565b600060208284031215612bb4578081fd5b81356001600160e01b0319811681146129c2578182fd5b60008060408385031215612bdd578182fd5b82356001600160401b0380821115612bf3578384fd5b818501915085601f830112612c06578384fd5b612c15868335602085016128ae565b9350602085013591508082168214612c2b578283fd5b50809150509250929050565b600060208284031215612c48578081fd5b5035919050565b600060208284031215612c60578081fd5b5051919050565b600080600080600080600080610100898b031215612c83578586fd5b8835975060208901359650612c9a60408a01612905565b979a96995096976060810135975060808101359660a0820135965060c0820135955060e0909101359350915050565b60008151808452815b81811015612cee57602081850181015186830182015201612cd2565b81811115612cff5782602083870101525b50601f01601f19169290920160200192915050565b805182526000602082015160c06020850152612d3360c0850182612cc9565b6040848101516001600160401b031690860152606080850151908601526080808501519086015260a0938401516001600160a01b031693909401929092525090919050565b6001600160a01b0394851681529290931660208301526040820152606081019190915260a06080820181905260009082015260c00190565b6000602080830181845280855180835260408601915060408160051b8701019250838701855b82811015612e0457603f19888603018452612df2858351612d14565b94509285019290850190600101612dd6565b5092979650505050505050565b602080825282518282018190526000919060409081850190868401855b82811015612e865781518051855286810151878601528581015186860152606080820151908601526080808201519086015260a0808201519086015260c0908101519085015260e09093019290850190600101612e2e565b5091979650505050505050565b602080825282518282018190526000919060409081850190868401855b82811015612e86578151805185528681015187860152858101516001600160a01b0316868601526060808201519086015260809081015115159085015260a09093019290850190600101612eb0565b60a081526000612f1260a0830188612cc9565b6001600160401b0396909616602083015250604081019390935260608301919091526001600160a01b0316608090910152919050565b60208082526034908201527f596f7520646f206e6f74206f776e20746865204e4654207469636b657420796f6040820152731d48185c99481d1c9e5a5b99c81d1bc81b1a5cdd60621b606082015260800190565b6020808252604b908201527f596f75206861766520657863656564656420746865206d6178696d756d20616d60408201527f6f756e74206f66207469636b65747320796f752061726520616c6c6f7765642060608201526a746f20707572636861736560a81b608082015260a00190565b60208082526024908201527f436f727265637420616d6f756e74206f66206d6f6e657920776173206e6f74206040820152631cd95b9d60e21b606082015260800190565b60208082526018908201527f4576656e742068617320616c7265616479207061737365640000000000000000604082015260600190565b6020815260006129c26020830184612d14565b604051601f8201601f191681016001600160401b03811182821017156130c3576130c36131a5565b604052919050565b600082198211156130de576130de61318f565b500190565b6000826130fe57634e487b7160e01b81526012600452602481fd5b500490565b600081600019048311821515161561311d5761311d61318f565b500290565b6000828210156131345761313461318f565b500390565b600181811c9082168061314d57607f821691505b6020821081141561316e57634e487b7160e01b600052602260045260246000fd5b50919050565b60006000198214156131885761318861318f565b5060010190565b634e487b7160e01b600052601160045260246000fd5b634e487b7160e01b600052604160045260246000fdfea2646970667358221220107b22909e1d6325e831f9bd5a6cec2d399ec1449ec1ebc2a50c9ad4eb87e70564736f6c63430008040033",
  "linkReferences": {},
  "deployedLinkReferences": {}
}