{
  "_format": "hh-sol-artifact-1",
  "contractName": "TicketMarket",
  "sourceName": "contracts/TicketMarket.sol",
  "abi": [
    {
      "anonymous": false,
      "inputs": [
        {
          "indexed": true,
          "internalType": "uint256",
          "name": "eventId",
          "type": "uint256"
        },
        {
          "indexed": false,
          "internalType": "string",
          "name": "uri",
          "type": "string"
        },
        {
          "indexed": false,
          "internalType": "uint64",
          "name": "startDate",
          "type": "uint64"
        },
        {
          "indexed": false,
          "internalType": "uint256",
          "name": "ticketTotal",
          "type": "uint256"
        },
        {
          "indexed": false,
          "internalType": "uint256",
          "name": "ticketsSold",
          "type": "uint256"
        },
        {
          "indexed": false,
          "internalType": "address",
          "name": "owner",
          "type": "address"
        }
      ],
      "name": "MarketEventCreated",
      "type": "event"
    },
    {
      "anonymous": false,
      "inputs": [
        {
          "indexed": true,
          "internalType": "uint256",
          "name": "tokenId",
          "type": "uint256"
        },
        {
          "indexed": true,
          "internalType": "uint256",
          "name": "eventId",
          "type": "uint256"
        },
        {
          "indexed": false,
          "internalType": "uint256",
          "name": "price",
          "type": "uint256"
        },
        {
          "indexed": false,
          "internalType": "uint256",
          "name": "purchaseLimit",
          "type": "uint256"
        },
        {
          "indexed": false,
          "internalType": "uint256",
          "name": "totalSupply",
          "type": "uint256"
        },
        {
          "indexed": false,
          "internalType": "uint256",
          "name": "royaltyFee",
          "type": "uint256"
        },
        {
          "indexed": false,
          "internalType": "uint256",
          "name": "maxResalePrice",
          "type": "uint256"
        }
      ],
      "name": "MarketTicketCreated",
      "type": "event"
    },
    {
      "anonymous": false,
      "inputs": [
        {
          "indexed": true,
          "internalType": "uint256",
          "name": "resaleId",
          "type": "uint256"
        },
        {
          "indexed": true,
          "internalType": "uint256",
          "name": "tokenId",
          "type": "uint256"
        },
        {
          "indexed": false,
          "internalType": "address",
          "name": "seller",
          "type": "address"
        },
        {
          "indexed": false,
          "internalType": "uint256",
          "name": "resalePrice",
          "type": "uint256"
        },
        {
          "indexed": false,
          "internalType": "bool",
          "name": "sold",
          "type": "bool"
        }
      ],
      "name": "ResaleTicketCreated",
      "type": "event"
    },
    {
      "anonymous": false,
      "inputs": [
        {
          "indexed": true,
          "internalType": "uint256",
          "name": "tokenId",
          "type": "uint256"
        },
        {
          "indexed": false,
          "internalType": "address",
          "name": "ownerAddress",
          "type": "address"
        }
      ],
      "name": "TicketValidated",
      "type": "event"
    },
    {
      "inputs": [
        {
          "internalType": "address",
          "name": "nftContract",
          "type": "address"
        },
        {
          "internalType": "uint256",
          "name": "tokenId",
          "type": "uint256"
        },
        {
          "internalType": "uint256",
          "name": "amount",
          "type": "uint256"
        }
      ],
      "name": "addMoreTicketsToMarket",
      "outputs": [],
      "stateMutability": "nonpayable",
      "type": "function"
    },
    {
      "inputs": [
        {
          "internalType": "address",
          "name": "nftContract",
          "type": "address"
        },
        {
          "internalType": "uint256",
          "name": "_resaleId",
          "type": "uint256"
        }
      ],
      "name": "buyResaleTicket",
      "outputs": [],
      "stateMutability": "payable",
      "type": "function"
    },
    {
      "inputs": [
        {
          "internalType": "address",
          "name": "nftContract",
          "type": "address"
        },
        {
          "internalType": "uint256",
          "name": "tokenId",
          "type": "uint256"
        },
        {
          "internalType": "uint256",
          "name": "amount",
          "type": "uint256"
        }
      ],
      "name": "buyTicket",
      "outputs": [],
      "stateMutability": "payable",
      "type": "function"
    },
    {
      "inputs": [
        {
          "internalType": "string",
          "name": "uri",
          "type": "string"
        },
        {
          "internalType": "uint64",
          "name": "startDate",
          "type": "uint64"
        }
      ],
      "name": "createEvent",
      "outputs": [
        {
          "internalType": "uint256",
          "name": "",
          "type": "uint256"
        }
      ],
      "stateMutability": "nonpayable",
      "type": "function"
    },
    {
      "inputs": [
        {
          "internalType": "uint256",
          "name": "eventId",
          "type": "uint256"
        },
        {
          "internalType": "uint256",
          "name": "tokenId",
          "type": "uint256"
        },
        {
          "internalType": "address",
          "name": "nftContract",
          "type": "address"
        },
        {
          "internalType": "uint256",
          "name": "purchaseLimit",
          "type": "uint256"
        },
        {
          "internalType": "uint256",
          "name": "totalSupply",
          "type": "uint256"
        },
        {
          "internalType": "uint256",
          "name": "price",
          "type": "uint256"
        },
        {
          "internalType": "uint256",
          "name": "royaltyFee",
          "type": "uint256"
        },
        {
          "internalType": "uint256",
          "name": "maxResalePrice",
          "type": "uint256"
        }
      ],
      "name": "createMarketTicket",
      "outputs": [],
      "stateMutability": "nonpayable",
      "type": "function"
    },
    {
      "inputs": [],
      "name": "getAllEvents",
      "outputs": [
        {
          "components": [
            {
              "internalType": "uint256",
              "name": "eventId",
              "type": "uint256"
            },
            {
              "internalType": "string",
              "name": "uri",
              "type": "string"
            },
            {
              "internalType": "uint64",
              "name": "startDate",
              "type": "uint64"
            },
            {
              "internalType": "uint256",
              "name": "ticketTotal",
              "type": "uint256"
            },
            {
              "internalType": "uint256",
              "name": "ticketsSold",
              "type": "uint256"
            },
            {
              "internalType": "address payable",
              "name": "owner",
              "type": "address"
            }
          ],
          "internalType": "struct TicketMarket.MarketEvent[]",
          "name": "",
          "type": "tuple[]"
        }
      ],
      "stateMutability": "view",
      "type": "function"
    },
    {
      "inputs": [
        {
          "internalType": "uint256",
          "name": "_eventId",
          "type": "uint256"
        }
      ],
      "name": "getEvent",
      "outputs": [
        {
          "components": [
            {
              "internalType": "uint256",
              "name": "eventId",
              "type": "uint256"
            },
            {
              "internalType": "string",
              "name": "uri",
              "type": "string"
            },
            {
              "internalType": "uint64",
              "name": "startDate",
              "type": "uint64"
            },
            {
              "internalType": "uint256",
              "name": "ticketTotal",
              "type": "uint256"
            },
            {
              "internalType": "uint256",
              "name": "ticketsSold",
              "type": "uint256"
            },
            {
              "internalType": "address payable",
              "name": "owner",
              "type": "address"
            }
          ],
          "internalType": "struct TicketMarket.MarketEvent",
          "name": "",
          "type": "tuple"
        }
      ],
      "stateMutability": "view",
      "type": "function"
    },
    {
      "inputs": [
        {
          "internalType": "uint256",
          "name": "_eventId",
          "type": "uint256"
        }
      ],
      "name": "getEventTickets",
      "outputs": [
        {
          "components": [
            {
              "internalType": "uint256",
              "name": "tokenId",
              "type": "uint256"
            },
            {
              "internalType": "uint256",
              "name": "eventId",
              "type": "uint256"
            },
            {
              "internalType": "uint256",
              "name": "price",
              "type": "uint256"
            },
            {
              "internalType": "uint256",
              "name": "purchaseLimit",
              "type": "uint256"
            },
            {
              "internalType": "uint256",
              "name": "totalSupply",
              "type": "uint256"
            },
            {
              "internalType": "uint256",
              "name": "royaltyFee",
              "type": "uint256"
            },
            {
              "internalType": "uint256",
              "name": "maxResalePrice",
              "type": "uint256"
            }
          ],
          "internalType": "struct TicketMarket.MarketTicket[]",
          "name": "",
          "type": "tuple[]"
        }
      ],
      "stateMutability": "view",
      "type": "function"
    },
    {
      "inputs": [],
      "name": "getMyEvents",
      "outputs": [
        {
          "components": [
            {
              "internalType": "uint256",
              "name": "eventId",
              "type": "uint256"
            },
            {
              "internalType": "string",
              "name": "uri",
              "type": "string"
            },
            {
              "internalType": "uint64",
              "name": "startDate",
              "type": "uint64"
            },
            {
              "internalType": "uint256",
              "name": "ticketTotal",
              "type": "uint256"
            },
            {
              "internalType": "uint256",
              "name": "ticketsSold",
              "type": "uint256"
            },
            {
              "internalType": "address payable",
              "name": "owner",
              "type": "address"
            }
          ],
          "internalType": "struct TicketMarket.MarketEvent[]",
          "name": "",
          "type": "tuple[]"
        }
      ],
      "stateMutability": "view",
      "type": "function"
    },
    {
      "inputs": [],
      "name": "getMyResaleListings",
      "outputs": [
        {
          "components": [
            {
              "internalType": "uint256",
              "name": "resaleId",
              "type": "uint256"
            },
            {
              "internalType": "uint256",
              "name": "tokenId",
              "type": "uint256"
            },
            {
              "internalType": "address payable",
              "name": "seller",
              "type": "address"
            },
            {
              "internalType": "uint256",
              "name": "resalePrice",
              "type": "uint256"
            },
            {
              "internalType": "bool",
              "name": "sold",
              "type": "bool"
            }
          ],
          "internalType": "struct TicketMarket.ResaleTicket[]",
          "name": "",
          "type": "tuple[]"
        }
      ],
      "stateMutability": "view",
      "type": "function"
    },
    {
      "inputs": [
        {
          "internalType": "address",
          "name": "nftContract",
          "type": "address"
        }
      ],
      "name": "getMyTickets",
      "outputs": [
        {
          "components": [
            {
              "internalType": "uint256",
              "name": "tokenId",
              "type": "uint256"
            },
            {
              "internalType": "uint256",
              "name": "eventId",
              "type": "uint256"
            },
            {
              "internalType": "uint256",
              "name": "price",
              "type": "uint256"
            },
            {
              "internalType": "uint256",
              "name": "purchaseLimit",
              "type": "uint256"
            },
            {
              "internalType": "uint256",
              "name": "totalSupply",
              "type": "uint256"
            },
            {
              "internalType": "uint256",
              "name": "royaltyFee",
              "type": "uint256"
            },
            {
              "internalType": "uint256",
              "name": "maxResalePrice",
              "type": "uint256"
            }
          ],
          "internalType": "struct TicketMarket.MarketTicket[]",
          "name": "",
          "type": "tuple[]"
        }
      ],
      "stateMutability": "view",
      "type": "function"
    },
    {
      "inputs": [
        {
          "internalType": "uint256",
          "name": "_tokenId",
          "type": "uint256"
        }
      ],
      "name": "getResaleTickets",
      "outputs": [
        {
          "components": [
            {
              "internalType": "uint256",
              "name": "resaleId",
              "type": "uint256"
            },
            {
              "internalType": "uint256",
              "name": "tokenId",
              "type": "uint256"
            },
            {
              "internalType": "address payable",
              "name": "seller",
              "type": "address"
            },
            {
              "internalType": "uint256",
              "name": "resalePrice",
              "type": "uint256"
            },
            {
              "internalType": "bool",
              "name": "sold",
              "type": "bool"
            }
          ],
          "internalType": "struct TicketMarket.ResaleTicket[]",
          "name": "",
          "type": "tuple[]"
        }
      ],
      "stateMutability": "view",
      "type": "function"
    },
    {
      "inputs": [
        {
          "internalType": "address",
          "name": "nftContract",
          "type": "address"
        },
        {
          "internalType": "uint256",
          "name": "_tokenId",
          "type": "uint256"
        },
        {
          "internalType": "uint256",
          "name": "price",
          "type": "uint256"
        }
      ],
      "name": "listOnResale",
      "outputs": [
        {
          "internalType": "uint256",
          "name": "",
          "type": "uint256"
        }
      ],
      "stateMutability": "nonpayable",
      "type": "function"
    },
    {
      "inputs": [
        {
          "internalType": "address",
          "name": "",
          "type": "address"
        },
        {
          "internalType": "address",
          "name": "",
          "type": "address"
        },
        {
          "internalType": "uint256[]",
          "name": "",
          "type": "uint256[]"
        },
        {
          "internalType": "uint256[]",
          "name": "",
          "type": "uint256[]"
        },
        {
          "internalType": "bytes",
          "name": "",
          "type": "bytes"
        }
      ],
      "name": "onERC1155BatchReceived",
      "outputs": [
        {
          "internalType": "bytes4",
          "name": "",
          "type": "bytes4"
        }
      ],
      "stateMutability": "nonpayable",
      "type": "function"
    },
    {
      "inputs": [
        {
          "internalType": "address",
          "name": "",
          "type": "address"
        },
        {
          "internalType": "address",
          "name": "",
          "type": "address"
        },
        {
          "internalType": "uint256",
          "name": "",
          "type": "uint256"
        },
        {
          "internalType": "uint256",
          "name": "",
          "type": "uint256"
        },
        {
          "internalType": "bytes",
          "name": "",
          "type": "bytes"
        }
      ],
      "name": "onERC1155Received",
      "outputs": [
        {
          "internalType": "bytes4",
          "name": "",
          "type": "bytes4"
        }
      ],
      "stateMutability": "nonpayable",
      "type": "function"
    },
    {
      "inputs": [
        {
          "internalType": "bytes4",
          "name": "interfaceId",
          "type": "bytes4"
        }
      ],
      "name": "supportsInterface",
      "outputs": [
        {
          "internalType": "bool",
          "name": "",
          "type": "bool"
        }
      ],
      "stateMutability": "view",
      "type": "function"
    },
    {
      "inputs": [
        {
          "internalType": "address",
          "name": "nftContract",
          "type": "address"
        },
        {
          "internalType": "uint256",
          "name": "tokenId",
          "type": "uint256"
        },
        {
          "internalType": "bytes32",
          "name": "hash",
          "type": "bytes32"
        },
        {
          "internalType": "uint8",
          "name": "v",
          "type": "uint8"
        },
        {
          "internalType": "bytes32",
          "name": "r",
          "type": "bytes32"
        },
        {
          "internalType": "bytes32",
          "name": "s",
          "type": "bytes32"
        }
      ],
      "name": "validateTicket",
      "outputs": [
        {
          "internalType": "address",
          "name": "",
          "type": "address"
        }
      ],
      "stateMutability": "nonpayable",
      "type": "function"
    }
  ],
  "bytecode": "0x608060405234801561001057600080fd5b50613328806100206000396000f3fe6080604052600436106100fe5760003560e01c8063aa1a3e6d11610095578063ca261ce111610064578063ca261ce1146102eb578063d686c5301461030b578063d88b24a91461032b578063e3e5c2b91461034b578063f23a6e611461035e57600080fd5b8063aa1a3e6d1461025e578063b4ec509e1461027e578063bc197c8114610291578063c27a500d146102d657600080fd5b8063772dd824116100d1578063772dd824146101b557806389e64822146101ed5780638aaf26861461020f5780638ead0c9a1461023c57600080fd5b806301ffc9a7146101035780633548124b1461013857806343f231321461015a5780636d1884e014610188575b600080fd5b34801561010f57600080fd5b5061012361011e366004612cb0565b61038a565b60405190151581526020015b60405180910390f35b34801561014457600080fd5b5061014d61039b565b60405161012f9190612ebd565b34801561016657600080fd5b5061017a610175366004612c7e565b61060f565b60405190815260200161012f565b34801561019457600080fd5b506101a86101a3366004612d44565b6109af565b60405161012f91906131bf565b3480156101c157600080fd5b506101d56101d0366004612c20565b610b0d565b6040516001600160a01b03909116815260200161012f565b3480156101f957600080fd5b50610202610e53565b60405161012f9190612fa0565b34801561021b57600080fd5b5061022f61022a366004612ad6565b61107d565b60405161012f9190612f1e565b34801561024857600080fd5b5061025c610257366004612c7e565b611369565b005b34801561026a57600080fd5b5061025c610279366004612d74565b61158f565b61025c61028c366004612bf7565b611935565b34801561029d57600080fd5b506102bd6102ac366004612af0565b63bc197c8160e01b95945050505050565b6040516001600160e01b0319909116815260200161012f565b3480156102e257600080fd5b5061014d611c66565b3480156102f757600080fd5b5061022f610306366004612d44565b611ed9565b34801561031757600080fd5b50610202610326366004612d44565b6120d3565b34801561033757600080fd5b5061017a610346366004612cd8565b6122e7565b61025c610359366004612c7e565b6124a0565b34801561036a57600080fd5b506102bd610379366004612b95565b63f23a6e6160e01b95945050505050565b6000610395826127b9565b92915050565b606060006103a860015490565b905060008060005b8381101561040b5733600360006103c8846001613202565b81526020810191909152604001600020600501546001600160a01b031614156103f9576103f6600184613202565b92505b80610403816132ab565b9150506103b0565b506000826001600160401b0381111561043457634e487b7160e01b600052604160045260246000fd5b60405190808252806020026020018201604052801561046d57816020015b61045a6128a0565b8152602001906001900390816104525790505b50905060005b8481101561060657336003600061048b846001613202565b81526020810191909152604001600020600501546001600160a01b031614156105f45760006104bb826001613202565b90506000600360008381526020019081526020016000209050806040518060c0016040529081600082015481526020016001820180546104fa90613270565b80601f016020809104026020016040519081016040528092919081815260200182805461052690613270565b80156105735780601f1061054857610100808354040283529160200191610573565b820191906000526020600020905b81548152906001019060200180831161055657829003601f168201915b505050918352505060028201546001600160401b0316602082015260038201546040820152600482015460608201526005909101546001600160a01b031660809091015284518590879081106105d957634e487b7160e01b600052603260045260246000fd5b60209081029190910101526105ef600186613202565b945050505b806105fe816132ab565b915050610473565b50949350505050565b604051627eeac760e11b81523360048201526024810183905260009081906001600160a01b0386169062fdd58e9060440160206040518083038186803b15801561065857600080fd5b505afa15801561066c573d6000803e3d6000fd5b505050506040513d601f19601f820116820180604052508101906106909190612d5c565b116106fb5760405162461bcd60e51b815260206004820152603060248201527f596f7520646f206e6f74206f776e20746865207469636b657420796f7520617260448201526f19481d1c9e5a5b99c81d1bc81b1a5cdd60821b60648201526084015b60405180910390fd5b60008381526004602052604090206006015482111561078e5760405162461bcd60e51b815260206004820152604360248201527f526573616c652070726963652073686f756c64206e6f7420657863656564207460448201527f6865206d617820726573616c6520707269636520666f722074686973207469636064820152621ad95d60ea1b608482015260a4016106f2565b600083815260066020908152604080832033845290915290205460ff161561080c5760405162461bcd60e51b815260206004820152602b60248201527f54686973207469636b65742068617320616c7265616479206265656e2075736560448201526a1908199bdc88195d995b9d60aa1b60648201526084016106f2565b60008061081860025490565b90506001805b80801561082b5750828211155b156108685760008281526005602052604090206004015460ff16151560011415610856575091508160005b81610860816132ab565b92505061081e565b80156108825761087c600280546001019055565b60025493505b6040805160a08101825285815260208082018a815233838501818152606085018c81526000608087018181528c8252600590965287902095518655925160018087019190915590516002860180546001600160a01b0319166001600160a01b039283161790559251600386015592516004948501805460ff19169115159190911790559351637921219560e11b8152908c169363f242432a9361092d93919230928e92909101612e85565b600060405180830381600087803b15801561094757600080fd5b505af115801561095b573d6000803e3d6000fd5b505060408051338152602081018a905260008183015290518a93508792507f10162b7f8060fb4aab218f44d857dbcc081b02dffc4dd0ddc6068f616cb373b09181900360600190a350919695505050505050565b6109b76128a0565b600082815260036020526040902054610a125760405162461bcd60e51b815260206004820152601960248201527f54686973206576656e7420646f6573206e6f742065786973740000000000000060448201526064016106f2565b600360008381526020019081526020016000206040518060c001604052908160008201548152602001600182018054610a4a90613270565b80601f0160208091040260200160405190810160405280929190818152602001828054610a7690613270565b8015610ac35780601f10610a9857610100808354040283529160200191610ac3565b820191906000526020600020905b815481529060010190602001808311610aa657829003601f168201915b505050918352505060028201546001600160401b0316602082015260038201546040820152600482015460608201526005909101546001600160a01b031660809091015292915050565b600085815260046020908152604080832060010154835260039091528120600501546001600160a01b03163314610bb75760405162461bcd60e51b815260206004820152604260248201527f596f7520646f206e6f7420746865206f776e20746865206576656e7420666f7260448201527f20746865207469636b657420747279696e6720746f2062652076616c69646174606482015261195960f21b608482015260a4016106f2565b6040517f19457468657265756d205369676e6564204d6573736167653a0a3332000000006020820152603c8101869052600090605c0160408051601f198184030181528282528051602091820120600080855291840180845281905260ff89169284019290925260608301879052608083018690529092509060019060a0016020604051602081039080840390855afa158015610c58573d6000803e3d6000fd5b505050602060405103519050610c9a60405180604001604052806014815260200173029b4b3b730ba3ab9329030b2323932b9b9901e960651b815250826127ee565b604051627eeac760e11b81526001600160a01b038281166004830152602482018a9052600091908b169062fdd58e9060440160206040518083038186803b158015610ce457600080fd5b505afa158015610cf8573d6000803e3d6000fd5b505050506040513d601f19601f82011682018060405250810190610d1c9190612d5c565b11610d695760405162461bcd60e51b815260206004820152601a60248201527f4164647265737320646f6573206e6f74206f776e20746f6b656e00000000000060448201526064016106f2565b60008881526006602090815260408083206001600160a01b038516845290915290205460ff1615610de65760405162461bcd60e51b815260206004820152602160248201527f557365722068617320616c72656164792076616c696461746564207469636b656044820152601d60fa1b60648201526084016106f2565b60008881526006602090815260408083206001600160a01b03851680855290835292819020805460ff191660011790555191825289917f7523a5038b0221808d5987c7a4c3a6d9074ed76bf247f76665b2ed493e8fd1fb910160405180910390a298975050505050505050565b60606000610e6060025490565b905060008060005b83811015610ef2573360056000610e80846001613202565b81526020810191909152604001600020600201546001600160a01b0316148015610ecd575060056000610eb4836001613202565b815260208101919091526040016000206004015460ff16155b15610ee057610edd600184613202565b92505b80610eea816132ab565b915050610e68565b506000826001600160401b03811115610f1b57634e487b7160e01b600052604160045260246000fd5b604051908082528060200260200182016040528015610f5457816020015b610f416128e8565b815260200190600190039081610f395790505b50905060005b84811015610606573360056000610f72846001613202565b81526020810191909152604001600020600201546001600160a01b0316148015610fbf575060056000610fa6836001613202565b815260208101919091526040016000206004015460ff16155b1561106b576000610fd1826001613202565b600081815260056020908152604091829020825160a0810184528154815260018201549281019290925260028101546001600160a01b03169282019290925260038201546060820152600482015460ff16151560808201528551929350909185908790811061105057634e487b7160e01b600052603260045260246000fd5b6020908102919091010152611066600186613202565b945050505b80611075816132ab565b915050610f5a565b6060600061108a60005490565b905060008060005b838110156111565760016001600160a01b03871662fdd58e336110b58585613202565b6040516001600160e01b031960e085901b1681526001600160a01b039092166004830152602482015260440160206040518083038186803b1580156110f957600080fd5b505afa15801561110d573d6000803e3d6000fd5b505050506040513d601f19601f820116820180604052508101906111319190612d5c565b1061114457611141600184613202565b92505b8061114e816132ab565b915050611092565b506000826001600160401b0381111561117f57634e487b7160e01b600052604160045260246000fd5b6040519080825280602002602001820160405280156111f057816020015b6111dd6040518060e00160405280600081526020016000815260200160008152602001600081526020016000815260200160008152602001600081525090565b81526020019060019003908161119d5790505b50905060005b8481101561135f5760016001600160a01b03881662fdd58e336112198585613202565b6040516001600160e01b031960e085901b1681526001600160a01b039092166004830152602482015260440160206040518083038186803b15801561125d57600080fd5b505afa158015611271573d6000803e3d6000fd5b505050506040513d601f19601f820116820180604052508101906112959190612d5c565b1061134d5760006112a7826001613202565b90506000600460008381526020019081526020016000209050806040518060e001604052908160008201548152602001600182015481526020016002820154815260200160038201548152602001600482015481526020016005820154815260200160068201548152505084868151811061133257634e487b7160e01b600052603260045260246000fd5b6020908102919091010152611348600186613202565b945050505b80611357816132ab565b9150506111f6565b5095945050505050565b600082815260046020819052604091829020600101549151627eeac760e11b815233918101919091526024810184905282906001600160a01b0386169062fdd58e9060440160206040518083038186803b1580156113c657600080fd5b505afa1580156113da573d6000803e3d6000fd5b505050506040513d601f19601f820116820180604052508101906113fe9190612d5c565b101561141c5760405162461bcd60e51b81526004016106f29061307f565b6000818152600360205260409020600501546001600160a01b031633146114815760405162461bcd60e51b8152602060048201526019602482015278165bdd48191bc81b9bdd081bdddb881d1a1a5cc8195d995b9d603a1b60448201526064016106f2565b6000818152600360205260409020600201546001600160401b039081164290911611156114c05760405162461bcd60e51b81526004016106f290613188565b604051637921219560e11b81526001600160a01b0385169063f242432a906114f2903390309088908890600401612e85565b600060405180830381600087803b15801561150c57600080fd5b505af1158015611520573d6000803e3d6000fd5b5050506000828152600360208190526040909120015461154291508390613202565b60008281526003602081815260408084209092019390935585825260049283905290200154611572908390613202565b600093845260046020819052604090942090930192909255505050565b600083116115df5760405162461bcd60e51b815260206004820152601c60248201527f5072696365206d757374206265206174206c656173742031207765690000000060448201526064016106f2565b604051627eeac760e11b81523360048201526024810188905284906001600160a01b0388169062fdd58e9060440160206040518083038186803b15801561162557600080fd5b505afa158015611639573d6000803e3d6000fd5b505050506040513d601f19601f8201168201806040525081019061165d9190612d5c565b101561167b5760405162461bcd60e51b81526004016106f29061307f565b6000888152600360205260409020600501546001600160a01b031633146116e05760405162461bcd60e51b8152602060048201526019602482015278165bdd48191bc81b9bdd081bdddb881d1a1a5cc8195d995b9d603a1b60448201526064016106f2565b6000888152600360205260409020600201546001600160401b0390811642909116111561171f5760405162461bcd60e51b81526004016106f290613188565b60648211156117a45760405162461bcd60e51b815260206004820152604560248201527f526f79616c747920666565206d75737420626520612070657263656e7461676560448201527f2c207468657265666f72652069742063616e2774206265206d6f72652074686160648201526406e203130360dc1b608482015260a4016106f2565b6117b2600080546001019055565b6040518060e001604052808881526020018981526020018481526020018681526020018581526020018381526020018281525060046000898152602001908152602001600020600082015181600001556020820151816001015560408201518160020155606082015181600301556080820151816004015560a0820151816005015560c08201518160060155905050856001600160a01b031663f242432a33308a886040518563ffffffff1660e01b81526004016118739493929190612e85565b600060405180830381600087803b15801561188d57600080fd5b505af11580156118a1573d6000803e3d6000fd5b505050600089815260036020819052604090912001546118c391508590613202565b60008981526003602081815260409283902090910192909255805185815291820187905281018590526060810183905260808101829052889088907fc44cdb87b53b35fccd68bb206e5900d975bed5f74a2c7bf11e3ad4791d13334b9060a00160405180910390a35050505050505050565b60008181526005602081815260408084206003808201546001808401548089526004808852868a2080860154938101546002880154818d52968a52978b208a0154908a01549a8c90529890975295909301549096949592946001600160a01b0392831693909216919060ff1615611a145760405162461bcd60e51b815260206004820152603760248201527f54686973207469636b6574206973206e6f742063757272656e746c792062656960448201527f6e67207265736f6c64206f6e20746865206d61726b657400000000000000000060648201526084016106f2565b604051627eeac760e11b8152336004820152602481018790526000906001600160a01b038b169062fdd58e9060440160206040518083038186803b158015611a5b57600080fd5b505afa158015611a6f573d6000803e3d6000fd5b505050506040513d601f19601f82011682018060405250810190611a939190612d5c565b611a9d9087613259565b11611aba5760405162461bcd60e51b81526004016106f2906130d3565b863414611ad95760405162461bcd60e51b81526004016106f290613144565b6000848152600360205260409020600201546001600160401b03908116429091161115611b185760405162461bcd60e51b81526004016106f290613188565b600086815260066020908152604080832033808552925291829020805460ff191690559051637921219560e11b81526001600160a01b038b169163f242432a91611b6b9130918b90600190600401612e85565b600060405180830381600087803b158015611b8557600080fd5b505af1158015611b99573d6000803e3d6000fd5b50505060008981526005602052905081611bb460648a61321a565b611bbe919061323a565b90506000611bcc828a613259565b6040519091506001600160a01b0386169082156108fc029083906000818181858888f19350505050158015611c05573d6000803e3d6000fd5b506040516001600160a01b0385169083156108fc029084906000818181858888f19350505050158015611c3c573d6000803e3d6000fd5b50505060009788525050600560205250506040909320600401805460ff1916600117905550505050565b60606000611c7360015490565b905060008060005b83811015611cda5760036000611c92836001613202565b81526020810191909152604001600020600201546001600160401b039081164290911611611cc857611cc5600184613202565b92505b80611cd2816132ab565b915050611c7b565b506000826001600160401b03811115611d0357634e487b7160e01b600052604160045260246000fd5b604051908082528060200260200182016040528015611d3c57816020015b611d296128a0565b815260200190600190039081611d215790505b50905060005b848110156106065760036000611d59836001613202565b81526020810191909152604001600020600201546001600160401b039081164290911611611ec7576000611d8e826001613202565b90506000600360008381526020019081526020016000209050806040518060c001604052908160008201548152602001600182018054611dcd90613270565b80601f0160208091040260200160405190810160405280929190818152602001828054611df990613270565b8015611e465780601f10611e1b57610100808354040283529160200191611e46565b820191906000526020600020905b815481529060010190602001808311611e2957829003601f168201915b505050918352505060028201546001600160401b0316602082015260038201546040820152600482015460608201526005909101546001600160a01b03166080909101528451859087908110611eac57634e487b7160e01b600052603260045260246000fd5b6020908102919091010152611ec2600186613202565b945050505b80611ed1816132ab565b915050611d42565b60606000611ee660005490565b905060008060005b83811015611f3e578560046000611f06846001613202565b8152602001908152602001600020600101541415611f2c57611f29600184613202565b92505b80611f36816132ab565b915050611eee565b506000826001600160401b03811115611f6757634e487b7160e01b600052604160045260246000fd5b604051908082528060200260200182016040528015611fd857816020015b611fc56040518060e00160405280600081526020016000815260200160008152602001600081526020016000815260200160008152602001600081525090565b815260200190600190039081611f855790505b50905060005b8481101561135f578660046000611ff6846001613202565b81526020019081526020016000206001015414156120c157600061201b826001613202565b90506000600460008381526020019081526020016000209050806040518060e00160405290816000820154815260200160018201548152602001600282015481526020016003820154815260200160048201548152602001600582015481526020016006820154815250508486815181106120a657634e487b7160e01b600052603260045260246000fd5b60209081029190910101526120bc600186613202565b945050505b806120cb816132ab565b915050611fde565b606060006120e060025490565b905060008060005b83811015612167578560056000612100846001613202565b815260200190815260200160002060010154148015612142575060056000612129836001613202565b815260208101919091526040016000206004015460ff16155b1561215557612152600184613202565b92505b8061215f816132ab565b9150506120e8565b506000826001600160401b0381111561219057634e487b7160e01b600052604160045260246000fd5b6040519080825280602002602001820160405280156121c957816020015b6121b66128e8565b8152602001906001900390816121ae5790505b50905060005b8481101561135f5786600560006121e7846001613202565b815260200190815260200160002060010154148015612229575060056000612210836001613202565b815260208101919091526040016000206004015460ff16155b156122d557600061223b826001613202565b600081815260056020908152604091829020825160a0810184528154815260018201549281019290925260028101546001600160a01b03169282019290925260038201546060820152600482015460ff1615156080820152855192935090918590879081106122ba57634e487b7160e01b600052603260045260246000fd5b60209081029190910101526122d0600186613202565b945050505b806122df816132ab565b9150506121cf565b6000336122f357600080fd5b612305426001600160401b0316612837565b612317826001600160401b0316612837565b816001600160401b0316426001600160401b031611156123795760405162461bcd60e51b815260206004820152601760248201527f446174652068617320616c72656164792070617373656400000000000000000060448201526064016106f2565b612387600180546001019055565b600061239260015490565b6040805160c08101825282815260208082018881526001600160401b03881683850152600060608401819052608084018190523360a08501528581526003835293909320825181559251805194955091936123f39260018501920190612922565b5060408281015160028301805467ffffffffffffffff19166001600160401b03909216919091179055606083015160038301556080830151600483015560a090920151600590910180546001600160a01b0319166001600160a01b039092169190911790555181907fe798e3d1c981dccaa805cf4220c73e55a59c9fa14d08e15cb196809ca6576abb90612491908790879060009081903390613036565b60405180910390a29392505050565b60008281526004602081815260408084206002810154600380830154600190930154808852945294829020600501549151627eeac760e11b8152309481019490945260248401879052926001600160a01b039182169188169062fdd58e9060440160206040518083038186803b15801561251957600080fd5b505afa15801561252d573d6000803e3d6000fd5b505050506040513d601f19601f820116820180604052508101906125519190612d5c565b8511156125b85760405162461bcd60e51b815260206004820152602f60248201527f4e6f7420656e6f756768207469636b6574732072656d61696e696e67206f6e2060448201526e746865206d61726b6574706c61636560881b60648201526084016106f2565b604051627eeac760e11b8152336004820152602481018790526001600160a01b0388169062fdd58e9060440160206040518083038186803b1580156125fc57600080fd5b505afa158015612610573d6000803e3d6000fd5b505050506040513d601f19601f820116820180604052508101906126349190612d5c565b61263e9084613259565b85111561265d5760405162461bcd60e51b81526004016106f2906130d3565b612667858561323a565b34146126855760405162461bcd60e51b81526004016106f290613144565b6000828152600360205260409020600201546001600160401b039081164290911611156126c45760405162461bcd60e51b81526004016106f290613188565b600086815260066020908152604080832033808552925291829020805460ff191690559051637921219560e11b81526001600160a01b0389169163f242432a916127169130918b908b90600401612e85565b600060405180830381600087803b15801561273057600080fd5b505af1158015612744573d6000803e3d6000fd5b50505060008381526003602052604090206004015461276591508690613202565b6000838152600360205260408082206004019290925590516001600160a01b038316913480156108fc02929091818181858888f193505050501580156127af573d6000803e3d6000fd5b5050505050505050565b60006001600160e01b03198216630271189760e51b148061039557506301ffc9a760e01b6001600160e01b0319831614610395565b612833828260405160240161280492919061300c565b60408051601f198184030181529190526020810180516001600160e01b031663319af33360e01b17905261287f565b5050565b61287c8160405160240161284d91815260200190565b60408051601f198184030181529190526020810180516001600160e01b031663f5b1bba960e01b17905261287f565b50565b80516a636f6e736f6c652e6c6f67602083016000808483855afa5050505050565b6040518060c00160405280600081526020016060815260200160006001600160401b03168152602001600081526020016000815260200160006001600160a01b031681525090565b6040518060a00160405280600081526020016000815260200160006001600160a01b03168152602001600081526020016000151581525090565b82805461292e90613270565b90600052602060002090601f0160209004810192826129505760008555612996565b82601f1061296957805160ff1916838001178555612996565b82800160010185558215612996579182015b8281111561299657825182559160200191906001019061297b565b506129a29291506129a6565b5090565b5b808211156129a257600081556001016129a7565b60006001600160401b038311156129d4576129d46132dc565b6129e7601f8401601f19166020016131d2565b90508281528383830111156129fb57600080fd5b828260208301376000602084830101529392505050565b80356001600160a01b0381168114612a2957600080fd5b919050565b600082601f830112612a3e578081fd5b813560206001600160401b03821115612a5957612a596132dc565b8160051b612a688282016131d2565b838152828101908684018388018501891015612a82578687fd5b8693505b85841015612aa4578035835260019390930192918401918401612a86565b50979650505050505050565b600082601f830112612ac0578081fd5b612acf838335602085016129bb565b9392505050565b600060208284031215612ae7578081fd5b612acf82612a12565b600080600080600060a08688031215612b07578081fd5b612b1086612a12565b9450612b1e60208701612a12565b935060408601356001600160401b0380821115612b39578283fd5b612b4589838a01612a2e565b94506060880135915080821115612b5a578283fd5b612b6689838a01612a2e565b93506080880135915080821115612b7b578283fd5b50612b8888828901612ab0565b9150509295509295909350565b600080600080600060a08688031215612bac578081fd5b612bb586612a12565b9450612bc360208701612a12565b9350604086013592506060860135915060808601356001600160401b03811115612beb578182fd5b612b8888828901612ab0565b60008060408385031215612c09578182fd5b612c1283612a12565b946020939093013593505050565b60008060008060008060c08789031215612c38578081fd5b612c4187612a12565b95506020870135945060408701359350606087013560ff81168114612c64578182fd5b9598949750929560808101359460a0909101359350915050565b600080600060608486031215612c92578283fd5b612c9b84612a12565b95602085013595506040909401359392505050565b600060208284031215612cc1578081fd5b81356001600160e01b031981168114612acf578182fd5b60008060408385031215612cea578182fd5b82356001600160401b0380821115612d00578384fd5b818501915085601f830112612d13578384fd5b612d22868335602085016129bb565b9350602085013591508082168214612d38578283fd5b50809150509250929050565b600060208284031215612d55578081fd5b5035919050565b600060208284031215612d6d578081fd5b5051919050565b600080600080600080600080610100898b031215612d90578586fd5b8835975060208901359650612da760408a01612a12565b979a96995096976060810135975060808101359660a0820135965060c0820135955060e0909101359350915050565b60008151808452815b81811015612dfb57602081850181015186830182015201612ddf565b81811115612e0c5782602083870101525b50601f01601f19169290920160200192915050565b805182526000602082015160c06020850152612e4060c0850182612dd6565b6040848101516001600160401b031690860152606080850151908601526080808501519086015260a0938401516001600160a01b031693909401929092525090919050565b6001600160a01b0394851681529290931660208301526040820152606081019190915260a06080820181905260009082015260c00190565b6000602080830181845280855180835260408601915060408160051b8701019250838701855b82811015612f1157603f19888603018452612eff858351612e21565b94509285019290850190600101612ee3565b5092979650505050505050565b602080825282518282018190526000919060409081850190868401855b82811015612f935781518051855286810151878601528581015186860152606080820151908601526080808201519086015260a0808201519086015260c0908101519085015260e09093019290850190600101612f3b565b5091979650505050505050565b602080825282518282018190526000919060409081850190868401855b82811015612f93578151805185528681015187860152858101516001600160a01b0316868601526060808201519086015260809081015115159085015260a09093019290850190600101612fbd565b60408152600061301f6040830185612dd6565b905060018060a01b03831660208301529392505050565b60a08152600061304960a0830188612dd6565b6001600160401b0396909616602083015250604081019390935260608301919091526001600160a01b0316608090910152919050565b60208082526034908201527f596f7520646f206e6f74206f776e20746865204e4654207469636b657420796f6040820152731d48185c99481d1c9e5a5b99c81d1bc81b1a5cdd60621b606082015260800190565b6020808252604b908201527f596f75206861766520657863656564656420746865206d6178696d756d20616d60408201527f6f756e74206f66207469636b65747320796f752061726520616c6c6f7765642060608201526a746f20707572636861736560a81b608082015260a00190565b60208082526024908201527f436f727265637420616d6f756e74206f66206d6f6e657920776173206e6f74206040820152631cd95b9d60e21b606082015260800190565b60208082526018908201527f4576656e742068617320616c7265616479207061737365640000000000000000604082015260600190565b602081526000612acf6020830184612e21565b604051601f8201601f191681016001600160401b03811182821017156131fa576131fa6132dc565b604052919050565b60008219821115613215576132156132c6565b500190565b60008261323557634e487b7160e01b81526012600452602481fd5b500490565b6000816000190483118215151615613254576132546132c6565b500290565b60008282101561326b5761326b6132c6565b500390565b600181811c9082168061328457607f821691505b602082108114156132a557634e487b7160e01b600052602260045260246000fd5b50919050565b60006000198214156132bf576132bf6132c6565b5060010190565b634e487b7160e01b600052601160045260246000fd5b634e487b7160e01b600052604160045260246000fdfea2646970667358221220a1bb65ee5d56abf7a6209aa2654da36248ca2c57f375f07c47f13c179c1687f764736f6c63430008040033",
  "linkReferences": {},
  "deployedLinkReferences": {}
}